{
  "contractName": "Aadhar",
  "abi": [
    {
      "inputs": [],
      "payable": false,
      "stateMutability": "nonpayable",
      "type": "constructor"
    },
    {
      "anonymous": false,
      "inputs": [
        {
          "indexed": false,
          "internalType": "uint256",
          "name": "note_Id",
          "type": "uint256"
        },
        {
          "indexed": false,
          "internalType": "string",
          "name": "proofid_Hash",
          "type": "string"
        },
        {
          "indexed": false,
          "internalType": "uint256",
          "name": "proofid_Size",
          "type": "uint256"
        },
        {
          "indexed": false,
          "internalType": "string",
          "name": "name",
          "type": "string"
        },
        {
          "indexed": false,
          "internalType": "string",
          "name": "house_address",
          "type": "string"
        },
        {
          "indexed": false,
          "internalType": "string",
          "name": "phone_number",
          "type": "string"
        },
        {
          "indexed": false,
          "internalType": "string",
          "name": "email_id",
          "type": "string"
        },
        {
          "indexed": false,
          "internalType": "uint256",
          "name": "uploadTime",
          "type": "uint256"
        },
        {
          "indexed": false,
          "internalType": "address",
          "name": "uploader",
          "type": "address"
        }
      ],
      "name": "ProofIDUploaded",
      "type": "event"
    },
    {
      "constant": true,
      "inputs": [],
      "name": "ProofIDCount",
      "outputs": [
        {
          "internalType": "uint256",
          "name": "",
          "type": "uint256"
        }
      ],
      "payable": false,
      "stateMutability": "view",
      "type": "function"
    },
    {
      "constant": true,
      "inputs": [],
      "name": "admin",
      "outputs": [
        {
          "internalType": "address",
          "name": "",
          "type": "address"
        }
      ],
      "payable": false,
      "stateMutability": "view",
      "type": "function"
    },
    {
      "constant": true,
      "inputs": [],
      "name": "con_sumers",
      "outputs": [
        {
          "internalType": "address",
          "name": "",
          "type": "address"
        }
      ],
      "payable": false,
      "stateMutability": "view",
      "type": "function"
    },
    {
      "constant": true,
      "inputs": [
        {
          "internalType": "uint256",
          "name": "",
          "type": "uint256"
        }
      ],
      "name": "proofids",
      "outputs": [
        {
          "internalType": "uint256",
          "name": "note_Id",
          "type": "uint256"
        },
        {
          "internalType": "string",
          "name": "proofid_Hash",
          "type": "string"
        },
        {
          "internalType": "uint256",
          "name": "proofid_Size",
          "type": "uint256"
        },
        {
          "internalType": "string",
          "name": "name",
          "type": "string"
        },
        {
          "internalType": "string",
          "name": "house_address",
          "type": "string"
        },
        {
          "internalType": "string",
          "name": "phone_number",
          "type": "string"
        },
        {
          "internalType": "string",
          "name": "email_id",
          "type": "string"
        },
        {
          "internalType": "uint256",
          "name": "uploadTime",
          "type": "uint256"
        },
        {
          "internalType": "address",
          "name": "uploader",
          "type": "address"
        },
        {
          "internalType": "uint256",
          "name": "reports",
          "type": "uint256"
        }
      ],
      "payable": false,
      "stateMutability": "view",
      "type": "function"
    },
    {
      "constant": true,
      "inputs": [
        {
          "internalType": "address",
          "name": "",
          "type": "address"
        },
        {
          "internalType": "uint256",
          "name": "",
          "type": "uint256"
        }
      ],
      "name": "reporters",
      "outputs": [
        {
          "internalType": "bool",
          "name": "reported",
          "type": "bool"
        }
      ],
      "payable": false,
      "stateMutability": "view",
      "type": "function"
    },
    {
      "constant": false,
      "inputs": [
        {
          "internalType": "address",
          "name": "_librarian",
          "type": "address"
        }
      ],
      "name": "changelibrarian",
      "outputs": [],
      "payable": false,
      "stateMutability": "nonpayable",
      "type": "function"
    },
    {
      "constant": false,
      "inputs": [
        {
          "internalType": "string",
          "name": "_proofid_Hash",
          "type": "string"
        },
        {
          "internalType": "uint256",
          "name": "_proofid_Size",
          "type": "uint256"
        },
        {
          "internalType": "string",
          "name": "_name",
          "type": "string"
        },
        {
          "internalType": "string",
          "name": "_houseaddress",
          "type": "string"
        },
        {
          "internalType": "string",
          "name": "_phonenumber",
          "type": "string"
        },
        {
          "internalType": "string",
          "name": "_email_id",
          "type": "string"
        }
      ],
      "name": "uploadProofID",
      "outputs": [],
      "payable": false,
      "stateMutability": "nonpayable",
      "type": "function"
    },
    {
      "constant": false,
      "inputs": [
        {
          "internalType": "uint256",
          "name": "index",
          "type": "uint256"
        }
      ],
      "name": "deleteproofid",
      "outputs": [],
      "payable": false,
      "stateMutability": "nonpayable",
      "type": "function"
    }
  ],
  "bytecode": "0x6080604052600060025534801561001557600080fd5b50336000806101000a81548173ffffffffffffffffffffffffffffffffffffffff021916908373ffffffffffffffffffffffffffffffffffffffff16021790555033600160006101000a81548173ffffffffffffffffffffffffffffffffffffffff021916908373ffffffffffffffffffffffffffffffffffffffff160217905550611da5806100a66000396000f3fe608060405234801561001057600080fd5b50600436106100885760003560e01c806338541b261161005b57806338541b26146104a257806374185928146104d0578063f851a44014610776578063f874d863146107c057610088565b80630709d39c1461008d57806315ae5f81146100d15780631f5d85db146103f257806336e0862d1461043c575b600080fd5b6100cf600480360360208110156100a357600080fd5b81019080803573ffffffffffffffffffffffffffffffffffffffff1690602001909291905050506107de565b005b6103f0600480360360c08110156100e757600080fd5b810190808035906020019064010000000081111561010457600080fd5b82018360208201111561011657600080fd5b8035906020019184600183028401116401000000008311171561013857600080fd5b91908080601f016020809104026020016040519081016040528093929190818152602001838380828437600081840152601f19601f82011690508083019250505050505050919291929080359060200190929190803590602001906401000000008111156101a557600080fd5b8201836020820111156101b757600080fd5b803590602001918460018302840111640100000000831117156101d957600080fd5b91908080601f016020809104026020016040519081016040528093929190818152602001838380828437600081840152601f19601f8201169050808301925050505050505091929192908035906020019064010000000081111561023c57600080fd5b82018360208201111561024e57600080fd5b8035906020019184600183028401116401000000008311171561027057600080fd5b91908080601f016020809104026020016040519081016040528093929190818152602001838380828437600081840152601f19601f820116905080830192505050505050509192919290803590602001906401000000008111156102d357600080fd5b8201836020820111156102e557600080fd5b8035906020019184600183028401116401000000008311171561030757600080fd5b91908080601f016020809104026020016040519081016040528093929190818152602001838380828437600081840152601f19601f8201169050808301925050505050505091929192908035906020019064010000000081111561036a57600080fd5b82018360208201111561037c57600080fd5b8035906020019184600183028401116401000000008311171561039e57600080fd5b91908080601f016020809104026020016040519081016040528093929190818152602001838380828437600081840152601f19601f82011690508083019250505050505050919291929050505061091e565b005b6103fa610dce565b604051808273ffffffffffffffffffffffffffffffffffffffff1673ffffffffffffffffffffffffffffffffffffffff16815260200191505060405180910390f35b6104886004803603604081101561045257600080fd5b81019080803573ffffffffffffffffffffffffffffffffffffffff16906020019092919080359060200190929190505050610df4565b604051808215151515815260200191505060405180910390f35b6104ce600480360360208110156104b857600080fd5b8101908080359060200190929190505050610e2c565b005b6104fc600480360360208110156104e657600080fd5b810190808035906020019092919050505061190f565b604051808b8152602001806020018a8152602001806020018060200180602001806020018981526020018873ffffffffffffffffffffffffffffffffffffffff1673ffffffffffffffffffffffffffffffffffffffff16815260200187815260200186810386528f818151815260200191508051906020019080838360005b8381101561059657808201518184015260208101905061057b565b50505050905090810190601f1680156105c35780820380516001836020036101000a031916815260200191505b5086810385528d818151815260200191508051906020019080838360005b838110156105fc5780820151818401526020810190506105e1565b50505050905090810190601f1680156106295780820380516001836020036101000a031916815260200191505b5086810384528c818151815260200191508051906020019080838360005b83811015610662578082015181840152602081019050610647565b50505050905090810190601f16801561068f5780820380516001836020036101000a031916815260200191505b5086810383528b818151815260200191508051906020019080838360005b838110156106c85780820151818401526020810190506106ad565b50505050905090810190601f1680156106f55780820380516001836020036101000a031916815260200191505b5086810382528a818151815260200191508051906020019080838360005b8381101561072e578082015181840152602081019050610713565b50505050905090810190601f16801561075b5780820380516001836020036101000a031916815260200191505b509f5050505050505050505050505050505060405180910390f35b61077e611c7b565b604051808273ffffffffffffffffffffffffffffffffffffffff1673ffffffffffffffffffffffffffffffffffffffff16815260200191505060405180910390f35b6107c8611ca0565b6040518082815260200191505060405180910390f35b6000809054906101000a900473ffffffffffffffffffffffffffffffffffffffff1673ffffffffffffffffffffffffffffffffffffffff163373ffffffffffffffffffffffffffffffffffffffff16146108a0576040517f08c379a000000000000000000000000000000000000000000000000000000000815260040180806020018281038252601a8152602001807f4f6e6c792041646d696e2063616e20616363657373207468697300000000000081525060200191505060405180910390fd5b600073ffffffffffffffffffffffffffffffffffffffff163373ffffffffffffffffffffffffffffffffffffffff1614156108da57600080fd5b80600160006101000a81548173ffffffffffffffffffffffffffffffffffffffff021916908373ffffffffffffffffffffffffffffffffffffffff16021790555050565b600086511161092c57600080fd5b600083511161093a57600080fd5b600082511161094857600080fd5b600081511161095657600080fd5b6000851161096357600080fd5b600073ffffffffffffffffffffffffffffffffffffffff163373ffffffffffffffffffffffffffffffffffffffff16141561099d57600080fd5b60026000815480929190600101919050555060405180610140016040528060025481526020018781526020018681526020018581526020018481526020018381526020018281526020014281526020013373ffffffffffffffffffffffffffffffffffffffff1681526020016000815250600360006002548152602001908152602001600020600082015181600001556020820151816001019080519060200190610a49929190611ca6565b50604082015181600201556060820151816003019080519060200190610a70929190611ca6565b506080820151816004019080519060200190610a8d929190611ca6565b5060a0820151816005019080519060200190610aaa929190611ca6565b5060c0820151816006019080519060200190610ac7929190611ca6565b5060e082015181600701556101008201518160080160006101000a81548173ffffffffffffffffffffffffffffffffffffffff021916908373ffffffffffffffffffffffffffffffffffffffff16021790555061012082015181600901559050507fdb42e4c411273d006ec7b8e57a3b385a4f8e9ee255beb4fffec091fc7b98978c6002548787878787874233604051808a815260200180602001898152602001806020018060200180602001806020018881526020018773ffffffffffffffffffffffffffffffffffffffff1673ffffffffffffffffffffffffffffffffffffffff16815260200186810386528e818151815260200191508051906020019080838360005b83811015610be8578082015181840152602081019050610bcd565b50505050905090810190601f168015610c155780820380516001836020036101000a031916815260200191505b5086810385528c818151815260200191508051906020019080838360005b83811015610c4e578082015181840152602081019050610c33565b50505050905090810190601f168015610c7b5780820380516001836020036101000a031916815260200191505b5086810384528b818151815260200191508051906020019080838360005b83811015610cb4578082015181840152602081019050610c99565b50505050905090810190601f168015610ce15780820380516001836020036101000a031916815260200191505b5086810383528a818151815260200191508051906020019080838360005b83811015610d1a578082015181840152602081019050610cff565b50505050905090810190601f168015610d475780820380516001836020036101000a031916815260200191505b50868103825289818151815260200191508051906020019080838360005b83811015610d80578082015181840152602081019050610d65565b50505050905090810190601f168015610dad5780820380516001836020036101000a031916815260200191505b509e50505050505050505050505050505060405180910390a1505050505050565b600160009054906101000a900473ffffffffffffffffffffffffffffffffffffffff1681565b6004602052816000526040600020602052806000526040600020600091509150508060000160009054906101000a900460ff16905081565b806003600082815260200190815260200160002060080160009054906101000a900473ffffffffffffffffffffffffffffffffffffffff1673ffffffffffffffffffffffffffffffffffffffff163373ffffffffffffffffffffffffffffffffffffffff161480610eea5750600160009054906101000a900473ffffffffffffffffffffffffffffffffffffffff1673ffffffffffffffffffffffffffffffffffffffff163373ffffffffffffffffffffffffffffffffffffffff16145b610f3f576040517f08c379a0000000000000000000000000000000000000000000000000000000008152600401808060200182810382526025815260200180611d4c6025913960400191505060405180910390fd5b600073ffffffffffffffffffffffffffffffffffffffff163373ffffffffffffffffffffffffffffffffffffffff161415610f7957600080fd5b6000600254118015610f8d57506002548211155b610fff576040517f08c379a00000000000000000000000000000000000000000000000000000000081526004018080602001828103825260118152602001807f556e61626c6520746f2044656c6574652100000000000000000000000000000081525060200191505060405180910390fd5b6002548214611733576040518061014001604052808381526020016003600060025481526020019081526020016000206001018054600181600116156101000203166002900480601f0160208091040260200160405190810160405280929190818152602001828054600181600116156101000203166002900480156110c65780601f1061109b576101008083540402835291602001916110c6565b820191906000526020600020905b8154815290600101906020018083116110a957829003601f168201915b505050505081526020016003600060025481526020019081526020016000206002015481526020016003600060025481526020019081526020016000206003018054600181600116156101000203166002900480601f01602080910402602001604051908101604052809291908181526020018280546001816001161561010002031660029004801561119a5780601f1061116f5761010080835404028352916020019161119a565b820191906000526020600020905b81548152906001019060200180831161117d57829003601f168201915b505050505081526020016003600060025481526020019081526020016000206004018054600181600116156101000203166002900480601f0160208091040260200160405190810160405280929190818152602001828054600181600116156101000203166002900480156112505780601f1061122557610100808354040283529160200191611250565b820191906000526020600020905b81548152906001019060200180831161123357829003601f168201915b505050505081526020016003600060025481526020019081526020016000206005018054600181600116156101000203166002900480601f0160208091040260200160405190810160405280929190818152602001828054600181600116156101000203166002900480156113065780601f106112db57610100808354040283529160200191611306565b820191906000526020600020905b8154815290600101906020018083116112e957829003601f168201915b505050505081526020016003600060025481526020019081526020016000206006018054600181600116156101000203166002900480601f0160208091040260200160405190810160405280929190818152602001828054600181600116156101000203166002900480156113bc5780601f10611391576101008083540402835291602001916113bc565b820191906000526020600020905b81548152906001019060200180831161139f57829003601f168201915b5050505050815260200160036000600254815260200190815260200160002060070154815260200160036000600254815260200190815260200160002060080160009054906101000a900473ffffffffffffffffffffffffffffffffffffffff1673ffffffffffffffffffffffffffffffffffffffff168152602001600081525060036000848152602001908152602001600020600082015181600001556020820151816001019080519060200190611476929190611ca6565b5060408201518160020155606082015181600301908051906020019061149d929190611ca6565b5060808201518160040190805190602001906114ba929190611ca6565b5060a08201518160050190805190602001906114d7929190611ca6565b5060c08201518160060190805190602001906114f4929190611ca6565b5060e082015181600701556101008201518160080160006101000a81548173ffffffffffffffffffffffffffffffffffffffff021916908373ffffffffffffffffffffffffffffffffffffffff1602179055506101208201518160090155905050604051806101400160405280600081526020016040518060200160405280600081525081526020016000815260200160405180602001604052806000815250815260200160405180602001604052806000815250815260200160405180602001604052806000815250815260200160405180602001604052806000815250815260200160008152602001600073ffffffffffffffffffffffffffffffffffffffff168152602001600081525060036000600254815260200190815260200160002060008201518160000155602082015181600101908051906020019061163c929190611ca6565b50604082015181600201556060820151816003019080519060200190611663929190611ca6565b506080820151816004019080519060200190611680929190611ca6565b5060a082015181600501908051906020019061169d929190611ca6565b5060c08201518160060190805190602001906116ba929190611ca6565b5060e082015181600701556101008201518160080160006101000a81548173ffffffffffffffffffffffffffffffffffffffff021916908373ffffffffffffffffffffffffffffffffffffffff16021790555061012082015181600901559050506002600081548092919060019003919050555061190b565b604051806101400160405280600081526020016040518060200160405280600081525081526020016000815260200160405180602001604052806000815250815260200160405180602001604052806000815250815260200160405180602001604052806000815250815260200160405180602001604052806000815250815260200160008152602001600073ffffffffffffffffffffffffffffffffffffffff168152602001600081525060036000848152602001908152602001600020600082015181600001556020820151816001019080519060200190611818929190611ca6565b5060408201518160020155606082015181600301908051906020019061183f929190611ca6565b50608082015181600401908051906020019061185c929190611ca6565b5060a0820151816005019080519060200190611879929190611ca6565b5060c0820151816006019080519060200190611896929190611ca6565b5060e082015181600701556101008201518160080160006101000a81548173ffffffffffffffffffffffffffffffffffffffff021916908373ffffffffffffffffffffffffffffffffffffffff1602179055506101208201518160090155905050600260008154809291906001900391905055505b5050565b6003602052806000526040600020600091509050806000015490806001018054600181600116156101000203166002900480601f0160208091040260200160405190810160405280929190818152602001828054600181600116156101000203166002900480156119c15780601f10611996576101008083540402835291602001916119c1565b820191906000526020600020905b8154815290600101906020018083116119a457829003601f168201915b505050505090806002015490806003018054600181600116156101000203166002900480601f016020809104026020016040519081016040528092919081815260200182805460018160011615610100020316600290048015611a655780601f10611a3a57610100808354040283529160200191611a65565b820191906000526020600020905b815481529060010190602001808311611a4857829003601f168201915b505050505090806004018054600181600116156101000203166002900480601f016020809104026020016040519081016040528092919081815260200182805460018160011615610100020316600290048015611b035780601f10611ad857610100808354040283529160200191611b03565b820191906000526020600020905b815481529060010190602001808311611ae657829003601f168201915b505050505090806005018054600181600116156101000203166002900480601f016020809104026020016040519081016040528092919081815260200182805460018160011615610100020316600290048015611ba15780601f10611b7657610100808354040283529160200191611ba1565b820191906000526020600020905b815481529060010190602001808311611b8457829003601f168201915b505050505090806006018054600181600116156101000203166002900480601f016020809104026020016040519081016040528092919081815260200182805460018160011615610100020316600290048015611c3f5780601f10611c1457610100808354040283529160200191611c3f565b820191906000526020600020905b815481529060010190602001808311611c2257829003601f168201915b5050505050908060070154908060080160009054906101000a900473ffffffffffffffffffffffffffffffffffffffff1690806009015490508a565b6000809054906101000a900473ffffffffffffffffffffffffffffffffffffffff1681565b60025481565b828054600181600116156101000203166002900490600052602060002090601f016020900481019282601f10611ce757805160ff1916838001178555611d15565b82800160010185558215611d15579182015b82811115611d14578251825591602001919060010190611cf9565b5b509050611d229190611d26565b5090565b611d4891905b80821115611d44576000816000905550600101611d2c565b5090565b9056fe4f6e6c792050726f6f6649442055706c6f616465722063616e206163636573732074686973a265627a7a7231582075050f2dcaf0cd74b7e5da6e568812914a1a15264216c8ded7a94132d176b85864736f6c63430005100032",
  "source": "pragma solidity ^0.5.16;\n\ncontract Aadhar {\n    \n  address public admin;\n  address public con_sumers;\n  \n \n  uint256 public ProofIDCount = 0;\n  \n  constructor() public {\n      admin = msg.sender;\n      con_sumers = msg.sender;\n  }\n    \n  struct ProofID {\n    uint256 note_Id;\n    string proofid_Hash;\n    uint256 proofid_Size;\n    string name;\n    string house_address;\n    string phone_number;\n    string email_id;\n    uint256 uploadTime;\n    address uploader;\n    uint reports;\n  }\n    \n  mapping(uint256 => ProofID) public proofids;\n    \n  struct Reporter{\n        bool reported;\n    }\n  \n  mapping(address => mapping(uint =>  Reporter)) public reporters;\n\n\n event ProofIDUploaded(uint256 note_Id,string proofid_Hash,uint256 proofid_Size,string name,string house_address,string phone_number,string email_id,uint256 uploadTime,address uploader);\n    \n  \n\n  modifier onlyadmin(){\n        require(msg.sender==admin,\"Only Admin can access this\");\n        _;\n    }\n    \n  modifier onlylibrarian(){\n        require(msg.sender==con_sumers,\"Only con_sumers can access this\");\n        _;\n    }\n    \n  modifier onlyUploaderorLibrarian(uint256 _index){\n        require(msg.sender==proofids[_index].uploader || msg.sender==con_sumers,\"Only ProofID Uploader can access this\");\n        _;\n    }\n    \n  modifier notuploader(uint256 _index){\n        require(msg.sender!=proofids[_index].uploader,\"Uploader can't report proofids\");\n        _;\n    }\n\n  function changelibrarian(address _librarian) public onlyadmin() {\n        require(msg.sender != address(0));\n        con_sumers = _librarian;\n    }\n    \n  \n  function uploadProofID(string memory _proofid_Hash,uint256 _proofid_Size,string memory _name,string memory _houseaddress,string memory _phonenumber,string memory _email_id) public {\n    \n    require(bytes(_proofid_Hash).length > 0);\n    require(bytes(_houseaddress).length > 0);\n    require(bytes(_phonenumber).length > 0);\n    require(bytes(_email_id).length > 0);\n    require(_proofid_Size > 0);\n    require(msg.sender != address(0));\n    \n\n    ProofIDCount++;\n\n    proofids[ProofIDCount] = ProofID(ProofIDCount,_proofid_Hash,_proofid_Size,_name,_houseaddress,_phonenumber,_email_id,now,msg.sender,0);\n    emit ProofIDUploaded(ProofIDCount,_proofid_Hash,_proofid_Size,_name,_houseaddress,_phonenumber,_email_id,now,msg.sender);\n    }\n    \n  function deleteproofid(uint index) public onlyUploaderorLibrarian(index){\n        require(msg.sender != address(0));\n        require(ProofIDCount > 0 && index <= ProofIDCount, \"Unable to Delete!\");\n        if(index != ProofIDCount){\n        proofids[index]= ProofID(index,proofids[ProofIDCount].proofid_Hash,proofids[ProofIDCount].proofid_Size,proofids[ProofIDCount].name,proofids[ProofIDCount].house_address,proofids[ProofIDCount].phone_number,proofids[ProofIDCount].email_id,proofids[ProofIDCount].uploadTime,proofids[ProofIDCount].uploader,0);\n        proofids[ProofIDCount]= ProofID(0,\"\",0,\"\",\"\",\"\",\"\",0,address(0),0);\n        ProofIDCount --;}\n        else\n        {\n            proofids[index]= ProofID(0,\"\",0,\"\",\"\",\"\",\"\",0,address(0),0);\n            ProofIDCount--;\n        }\n    }\n  \n}\n",
  "sourcePath": "D:\\Final Yr Project\\ENergy Dapp\\src\\contracts\\Aadhar.sol",
  "compiler": {
    "name": "solc",
    "version": "0.5.16+commit.9c3226ce.Emscripten.clang"
  },
  "schemaVersion": "3.4.7",
  "updatedAt": "2022-05-20T09:05:13.942Z",
  "networkType": "ethereum",
  "devdoc": {
    "methods": {}
  },
  "userdoc": {
    "methods": {}
  }
}