{
  "contractName": "EnergyAgreement",
  "abi": [
    {
      "inputs": [],
      "payable": false,
      "stateMutability": "nonpayable",
      "type": "constructor"
    },
    {
      "constant": true,
      "inputs": [
        {
          "internalType": "uint256",
          "name": "",
          "type": "uint256"
        }
      ],
      "name": "Consumer_by_No",
      "outputs": [
        {
          "internalType": "uint256",
          "name": "consumerno",
          "type": "uint256"
        },
        {
          "internalType": "uint256",
          "name": "energydeviceid",
          "type": "uint256"
        },
        {
          "internalType": "uint256",
          "name": "agreementid",
          "type": "uint256"
        },
        {
          "internalType": "string",
          "name": "Roomname",
          "type": "string"
        },
        {
          "internalType": "string",
          "name": "RoomAddresss",
          "type": "string"
        },
        {
          "internalType": "uint256",
          "name": "price",
          "type": "uint256"
        },
        {
          "internalType": "uint256",
          "name": "timestamp",
          "type": "uint256"
        },
        {
          "internalType": "address payable",
          "name": "consumerAddress",
          "type": "address"
        },
        {
          "internalType": "address payable",
          "name": "prosumerAddress",
          "type": "address"
        },
        {
          "internalType": "uint256",
          "name": "energy_in_kwh",
          "type": "uint256"
        }
      ],
      "payable": false,
      "stateMutability": "view",
      "type": "function"
    },
    {
      "constant": true,
      "inputs": [
        {
          "internalType": "uint256",
          "name": "",
          "type": "uint256"
        }
      ],
      "name": "EnergyAgreement_by_No",
      "outputs": [
        {
          "internalType": "uint256",
          "name": "energydeviceid",
          "type": "uint256"
        },
        {
          "internalType": "uint256",
          "name": "agreementid",
          "type": "uint256"
        },
        {
          "internalType": "string",
          "name": "Roomname",
          "type": "string"
        },
        {
          "internalType": "string",
          "name": "RoomAddresss",
          "type": "string"
        },
        {
          "internalType": "uint256",
          "name": "price",
          "type": "uint256"
        },
        {
          "internalType": "uint256",
          "name": "securityDeposit",
          "type": "uint256"
        },
        {
          "internalType": "uint256",
          "name": "commisionpercentage",
          "type": "uint256"
        },
        {
          "internalType": "uint256",
          "name": "lockInPeriod",
          "type": "uint256"
        },
        {
          "internalType": "uint256",
          "name": "timestamp",
          "type": "uint256"
        },
        {
          "internalType": "address payable",
          "name": "consumerAddress",
          "type": "address"
        },
        {
          "internalType": "address payable",
          "name": "prosumerAddress",
          "type": "address"
        },
        {
          "internalType": "uint256",
          "name": "energy_in_kwh",
          "type": "uint256"
        }
      ],
      "payable": false,
      "stateMutability": "view",
      "type": "function"
    },
    {
      "constant": true,
      "inputs": [
        {
          "internalType": "uint256",
          "name": "",
          "type": "uint256"
        }
      ],
      "name": "Energydevice_by_No",
      "outputs": [
        {
          "internalType": "uint256",
          "name": "energydeviceid",
          "type": "uint256"
        },
        {
          "internalType": "uint256",
          "name": "agreementid",
          "type": "uint256"
        },
        {
          "internalType": "string",
          "name": "housename",
          "type": "string"
        },
        {
          "internalType": "string",
          "name": "houseaddress",
          "type": "string"
        },
        {
          "internalType": "uint256",
          "name": "price",
          "type": "uint256"
        },
        {
          "internalType": "uint256",
          "name": "securityDeposit",
          "type": "uint256"
        },
        {
          "internalType": "uint256",
          "name": "timestamp",
          "type": "uint256"
        },
        {
          "internalType": "bool",
          "name": "vacant",
          "type": "bool"
        },
        {
          "internalType": "address payable",
          "name": "prosumer",
          "type": "address"
        },
        {
          "internalType": "address payable",
          "name": "currentProsumer",
          "type": "address"
        },
        {
          "internalType": "bool",
          "name": "disableroom",
          "type": "bool"
        },
        {
          "internalType": "uint256",
          "name": "energy_in_kwh",
          "type": "uint256"
        }
      ],
      "payable": false,
      "stateMutability": "view",
      "type": "function"
    },
    {
      "constant": true,
      "inputs": [
        {
          "internalType": "uint256",
          "name": "",
          "type": "uint256"
        }
      ],
      "name": "RequestAgreementTermination_By_No",
      "outputs": [
        {
          "internalType": "uint256",
          "name": "terminationno",
          "type": "uint256"
        },
        {
          "internalType": "uint256",
          "name": "energydeviceid",
          "type": "uint256"
        },
        {
          "internalType": "uint256",
          "name": "agreementid",
          "type": "uint256"
        },
        {
          "internalType": "uint256",
          "name": "timestamp",
          "type": "uint256"
        },
        {
          "internalType": "address",
          "name": "prosumer",
          "type": "address"
        },
        {
          "internalType": "address",
          "name": "consumer",
          "type": "address"
        },
        {
          "internalType": "bool",
          "name": "terminated",
          "type": "bool"
        },
        {
          "internalType": "bool",
          "name": "rejected",
          "type": "bool"
        },
        {
          "internalType": "bool",
          "name": "completed",
          "type": "bool"
        }
      ],
      "payable": false,
      "stateMutability": "view",
      "type": "function"
    },
    {
      "constant": true,
      "inputs": [],
      "name": "commisionpercentage",
      "outputs": [
        {
          "internalType": "uint256",
          "name": "",
          "type": "uint256"
        }
      ],
      "payable": false,
      "stateMutability": "view",
      "type": "function"
    },
    {
      "constant": true,
      "inputs": [],
      "name": "no_of_agreement",
      "outputs": [
        {
          "internalType": "uint256",
          "name": "",
          "type": "uint256"
        }
      ],
      "payable": false,
      "stateMutability": "view",
      "type": "function"
    },
    {
      "constant": true,
      "inputs": [],
      "name": "no_of_consumers",
      "outputs": [
        {
          "internalType": "uint256",
          "name": "",
          "type": "uint256"
        }
      ],
      "payable": false,
      "stateMutability": "view",
      "type": "function"
    },
    {
      "constant": true,
      "inputs": [],
      "name": "no_of_energydevices",
      "outputs": [
        {
          "internalType": "uint256",
          "name": "",
          "type": "uint256"
        }
      ],
      "payable": false,
      "stateMutability": "view",
      "type": "function"
    },
    {
      "constant": true,
      "inputs": [],
      "name": "no_of_terminationrequest",
      "outputs": [
        {
          "internalType": "uint256",
          "name": "",
          "type": "uint256"
        }
      ],
      "payable": false,
      "stateMutability": "view",
      "type": "function"
    },
    {
      "constant": true,
      "inputs": [
        {
          "internalType": "address",
          "name": "",
          "type": "address"
        },
        {
          "internalType": "uint256",
          "name": "",
          "type": "uint256"
        }
      ],
      "name": "reporters",
      "outputs": [
        {
          "internalType": "bool",
          "name": "reported",
          "type": "bool"
        }
      ],
      "payable": false,
      "stateMutability": "view",
      "type": "function"
    },
    {
      "constant": true,
      "inputs": [
        {
          "internalType": "uint256",
          "name": "",
          "type": "uint256"
        },
        {
          "internalType": "uint256",
          "name": "",
          "type": "uint256"
        }
      ],
      "name": "terminationreq",
      "outputs": [
        {
          "internalType": "bool",
          "name": "requested",
          "type": "bool"
        }
      ],
      "payable": false,
      "stateMutability": "view",
      "type": "function"
    },
    {
      "constant": false,
      "inputs": [
        {
          "internalType": "string",
          "name": "_housename",
          "type": "string"
        },
        {
          "internalType": "string",
          "name": "_houseaddress",
          "type": "string"
        },
        {
          "internalType": "uint256",
          "name": "_price",
          "type": "uint256"
        },
        {
          "internalType": "uint256",
          "name": "_securitydeposit",
          "type": "uint256"
        },
        {
          "internalType": "uint256",
          "name": "_energy_in_kwh",
          "type": "uint256"
        }
      ],
      "name": "addEnergydevice",
      "outputs": [],
      "payable": false,
      "stateMutability": "nonpayable",
      "type": "function"
    },
    {
      "constant": false,
      "inputs": [
        {
          "internalType": "uint256",
          "name": "_index",
          "type": "uint256"
        }
      ],
      "name": "signAgreement",
      "outputs": [],
      "payable": true,
      "stateMutability": "payable",
      "type": "function"
    },
    {
      "constant": false,
      "inputs": [
        {
          "internalType": "uint256",
          "name": "_index",
          "type": "uint256"
        }
      ],
      "name": "payConsumerforenergy",
      "outputs": [],
      "payable": true,
      "stateMutability": "payable",
      "type": "function"
    },
    {
      "constant": false,
      "inputs": [
        {
          "internalType": "uint256",
          "name": "_index",
          "type": "uint256"
        }
      ],
      "name": "agreementCompleted",
      "outputs": [],
      "payable": true,
      "stateMutability": "payable",
      "type": "function"
    },
    {
      "constant": false,
      "inputs": [
        {
          "internalType": "uint256",
          "name": "_index",
          "type": "uint256"
        },
        {
          "internalType": "uint256",
          "name": "_terminateno",
          "type": "uint256"
        }
      ],
      "name": "agreementTerminated",
      "outputs": [],
      "payable": false,
      "stateMutability": "nonpayable",
      "type": "function"
    },
    {
      "constant": false,
      "inputs": [
        {
          "internalType": "uint256",
          "name": "_index",
          "type": "uint256"
        },
        {
          "internalType": "uint256",
          "name": "_agreementno",
          "type": "uint256"
        },
        {
          "internalType": "uint256",
          "name": "_terminateno",
          "type": "uint256"
        }
      ],
      "name": "reject",
      "outputs": [],
      "payable": false,
      "stateMutability": "nonpayable",
      "type": "function"
    },
    {
      "constant": false,
      "inputs": [
        {
          "internalType": "uint256",
          "name": "_index",
          "type": "uint256"
        },
        {
          "internalType": "uint256",
          "name": "_agreementid",
          "type": "uint256"
        }
      ],
      "name": "requestTermination",
      "outputs": [],
      "payable": false,
      "stateMutability": "nonpayable",
      "type": "function"
    },
    {
      "constant": false,
      "inputs": [
        {
          "internalType": "uint256",
          "name": "_commision",
          "type": "uint256"
        }
      ],
      "name": "changeCommision",
      "outputs": [],
      "payable": false,
      "stateMutability": "nonpayable",
      "type": "function"
    },
    {
      "constant": false,
      "inputs": [
        {
          "internalType": "uint256",
          "name": "_index",
          "type": "uint256"
        }
      ],
      "name": "disableEnergydevice",
      "outputs": [],
      "payable": false,
      "stateMutability": "nonpayable",
      "type": "function"
    },
    {
      "constant": false,
      "inputs": [],
      "name": "Admin",
      "outputs": [
        {
          "internalType": "address",
          "name": "",
          "type": "address"
        }
      ],
      "payable": false,
      "stateMutability": "nonpayable",
      "type": "function"
    },
    {
      "constant": false,
      "inputs": [
        {
          "internalType": "uint256",
          "name": "_index",
          "type": "uint256"
        }
      ],
      "name": "totalfee",
      "outputs": [
        {
          "internalType": "uint256",
          "name": "",
          "type": "uint256"
        }
      ],
      "payable": false,
      "stateMutability": "nonpayable",
      "type": "function"
    },
    {
      "constant": false,
      "inputs": [
        {
          "internalType": "uint256",
          "name": "_index",
          "type": "uint256"
        }
      ],
      "name": "consumerbill",
      "outputs": [
        {
          "internalType": "uint256",
          "name": "",
          "type": "uint256"
        }
      ],
      "payable": false,
      "stateMutability": "nonpayable",
      "type": "function"
    },
    {
      "constant": false,
      "inputs": [
        {
          "internalType": "uint256",
          "name": "_index",
          "type": "uint256"
        }
      ],
      "name": "securitydeposit",
      "outputs": [
        {
          "internalType": "uint256",
          "name": "",
          "type": "uint256"
        }
      ],
      "payable": false,
      "stateMutability": "nonpayable",
      "type": "function"
    },
    {
      "constant": false,
      "inputs": [
        {
          "internalType": "uint256",
          "name": "_index",
          "type": "uint256"
        }
      ],
      "name": "prosumerAddress",
      "outputs": [
        {
          "internalType": "address",
          "name": "",
          "type": "address"
        }
      ],
      "payable": false,
      "stateMutability": "nonpayable",
      "type": "function"
    }
  ],
  "bytecode": "0x60806040526000600355600060045560006005556000600655600560075534801561002957600080fd5b50336000806101000a81548173ffffffffffffffffffffffffffffffffffffffff021916908373ffffffffffffffffffffffffffffffffffffffff160217905550613e58806100796000396000f3fe6080604052600436106101665760003560e01c80636cf1c7a2116100d15780639a7efda21161008a578063c91cafbd11610064578063c91cafbd14610561578063e32324071461058a578063ed530e0d146105d0578063ff1b636d1461061557610166565b80639a7efda2146104e2578063a3eaed811461050d578063c00433d01461053657610166565b80636cf1c7a2146103a35780636f322087146103cc57806371011ae5146103f557806381fc9d4e146104325780638213883c1461047a5780638fac6371146104a557610166565b806328e6ad261161012357806328e6ad261461023e57806332e7a8881461027b57806336e0862d146102b85780633ef9a386146102f557806344a0e1fa1461033257806344f136a71461037a57610166565b806303742de01461016b57806304d5ead0146101875780630ff2a806146101b257806316abb8a1146101dd5780631dc3b3c0146101f957806320b4256414610222575b600080fd5b610185600480360361018091908101906132d2565b610640565b005b34801561019357600080fd5b5061019c6110fe565b6040516101a991906139e3565b60405180910390f35b3480156101be57600080fd5b506101c7611104565b6040516101d491906139e3565b60405180910390f35b6101f760048036036101f291908101906132d2565b61110a565b005b34801561020557600080fd5b50610220600480360361021b91908101906132fb565b611425565b005b61023c600480360361023791908101906132d2565b6118ec565b005b34801561024a57600080fd5b50610265600480360361026091908101906132d2565b611f80565b60405161027291906139e3565b60405180910390f35b34801561028757600080fd5b506102a2600480360361029d91908101906132d2565b611fa5565b6040516102af91906139e3565b60405180910390f35b3480156102c457600080fd5b506102df60048036036102da91908101906131ef565b611fee565b6040516102ec9190613808565b60405180910390f35b34801561030157600080fd5b5061031c600480360361031791908101906132fb565b612026565b6040516103299190613808565b60405180910390f35b34801561033e57600080fd5b50610359600480360361035491908101906132d2565b61205e565b6040516103719c9b9a999897969594939291906139fe565b60405180910390f35b34801561038657600080fd5b506103a1600480360361039c9190810190613337565b612248565b005b3480156103af57600080fd5b506103ca60048036036103c591908101906132fb565b61241e565b005b3480156103d857600080fd5b506103f360048036036103ee91908101906132d2565b6126e2565b005b34801561040157600080fd5b5061041c600480360361041791908101906132d2565b612842565b60405161042991906139e3565b60405180910390f35b34801561043e57600080fd5b50610459600480360361045491908101906132d2565b612867565b6040516104719c9b9a99989796959493929190613ac6565b60405180910390f35b34801561048657600080fd5b5061048f612a37565b60405161049c91906139e3565b60405180910390f35b3480156104b157600080fd5b506104cc60048036036104c791908101906132d2565b612a3d565b6040516104d991906137ed565b60405180910390f35b3480156104ee57600080fd5b506104f7612a82565b60405161050491906139e3565b60405180910390f35b34801561051957600080fd5b50610534600480360361052f91908101906132d2565b612a88565b005b34801561054257600080fd5b5061054b612be2565b60405161055891906139e3565b60405180910390f35b34801561056d57600080fd5b506105886004803603610583919081019061322b565b612be8565b005b34801561059657600080fd5b506105b160048036036105ac91908101906132d2565b612e2a565b6040516105c79a99989796959493929190613b8e565b60405180910390f35b3480156105dc57600080fd5b506105f760048036036105f291908101906132d2565b612fee565b60405161060c99989796959493929190613c38565b60405180910390f35b34801561062157600080fd5b5061062a6130a3565b60405161063791906137ed565b60405180910390f35b806008600082815260200190815260200160002060070160019054906101000a900473ffffffffffffffffffffffffffffffffffffffff1673ffffffffffffffffffffffffffffffffffffffff163373ffffffffffffffffffffffffffffffffffffffff1614156106e6576040517f08c379a00000000000000000000000000000000000000000000000000000000081526004016106dd90613963565b60405180910390fd5b816008600082815260200190815260200160002060050154600860008381526020019081526020016000206004015401341015610758576040517f08c379a000000000000000000000000000000000000000000000000000000000815260040161074f90613903565b60405180910390fd5b82600115156008600083815260200190815260200160002060070160009054906101000a900460ff161515146107c3576040517f08c379a00000000000000000000000000000000000000000000000000000000081526004016107ba906138c3565b60405180910390fd5b83600015156008600083815260200190815260200160002060080160149054906101000a900460ff1615151461082e576040517f08c379a0000000000000000000000000000000000000000000000000000000008152600401610825906138a3565b60405180910390fd5b600073ffffffffffffffffffffffffffffffffffffffff163373ffffffffffffffffffffffffffffffffffffffff16141561086857600080fd5b60006008600087815260200190815260200160002060070160019054906101000a900473ffffffffffffffffffffffffffffffffffffffff169050600060086000888152602001908152602001600020600501546008600089815260200190815260200160002060040154019050600060646007548302816108e657fe5b049050600081830390506000809054906101000a900473ffffffffffffffffffffffffffffffffffffffff1673ffffffffffffffffffffffffffffffffffffffff166108fc839081150290604051600060405180830381858888f19350505050158015610957573d6000803e3d6000fd5b508373ffffffffffffffffffffffffffffffffffffffff166108fc829081150290604051600060405180830381858888f1935050505015801561099e573d6000803e3d6000fd5b5060046000815480929190600101919050555033600860008b815260200190815260200160002060080160006101000a81548173ffffffffffffffffffffffffffffffffffffffff021916908373ffffffffffffffffffffffffffffffffffffffff1602179055506000600860008b815260200190815260200160002060070160006101000a81548160ff02191690831515021790555042600860008b815260200190815260200160002060060181905550600454600860008b8152602001908152602001600020600101819055506040518061018001604052808a81526020016004548152602001600860008c81526020019081526020016000206002018054600181600116156101000203166002900480601f016020809104026020016040519081016040528092919081815260200182805460018160011615610100020316600290048015610b315780601f10610b0657610100808354040283529160200191610b31565b820191906000526020600020905b815481529060010190602001808311610b1457829003601f168201915b50505050508152602001600860008c81526020019081526020016000206003018054600181600116156101000203166002900480601f016020809104026020016040519081016040528092919081815260200182805460018160011615610100020316600290048015610be55780601f10610bba57610100808354040283529160200191610be5565b820191906000526020600020905b815481529060010190602001808311610bc857829003601f168201915b50505050508152602001600860008c8152602001908152602001600020600401548152602001600860008c815260200190815260200160002060050154815260200160075481526020016301e1338081526020014281526020013373ffffffffffffffffffffffffffffffffffffffff1681526020018573ffffffffffffffffffffffffffffffffffffffff168152602001600860008c81526020019081526020016000206009015481525060096000600454815260200190815260200160002060008201518160000155602082015181600101556040820151816002019080519060200190610cd69291906130cc565b506060820151816003019080519060200190610cf39291906130cc565b506080820151816004015560a0820151816005015560c0820151816006015560e0820151816007015561010082015181600801556101208201518160090160006101000a81548173ffffffffffffffffffffffffffffffffffffffff021916908373ffffffffffffffffffffffffffffffffffffffff16021790555061014082015181600a0160006101000a81548173ffffffffffffffffffffffffffffffffffffffff021916908373ffffffffffffffffffffffffffffffffffffffff16021790555061016082015181600b015590505060056000815480929190600101919050555060405180610140016040528060055481526020018a81526020016004548152602001600860008c81526020019081526020016000206002018054600181600116156101000203166002900480601f016020809104026020016040519081016040528092919081815260200182805460018160011615610100020316600290048015610ea35780601f10610e7857610100808354040283529160200191610ea3565b820191906000526020600020905b815481529060010190602001808311610e8657829003601f168201915b50505050508152602001600860008c81526020019081526020016000206003018054600181600116156101000203166002900480601f016020809104026020016040519081016040528092919081815260200182805460018160011615610100020316600290048015610f575780601f10610f2c57610100808354040283529160200191610f57565b820191906000526020600020905b815481529060010190602001808311610f3a57829003601f168201915b50505050508152602001600860008c81526020019081526020016000206004015481526020014281526020013373ffffffffffffffffffffffffffffffffffffffff1681526020018573ffffffffffffffffffffffffffffffffffffffff168152602001600860008c815260200190815260200160002060090154815250600a6000600554815260200190815260200160002060008201518160000155602082015181600101556040820151816002015560608201518160030190805190602001906110249291906130cc565b5060808201518160040190805190602001906110419291906130cc565b5060a0820151816005015560c0820151816006015560e08201518160070160006101000a81548173ffffffffffffffffffffffffffffffffffffffff021916908373ffffffffffffffffffffffffffffffffffffffff1602179055506101008201518160080160006101000a81548173ffffffffffffffffffffffffffffffffffffffff021916908373ffffffffffffffffffffffffffffffffffffffff1602179055506101208201518160090155905050505050505050505050565b60055481565b60045481565b806008600082815260200190815260200160002060070160019054906101000a900473ffffffffffffffffffffffffffffffffffffffff1673ffffffffffffffffffffffffffffffffffffffff163373ffffffffffffffffffffffffffffffffffffffff16146111af576040517f08c379a00000000000000000000000000000000000000000000000000000000081526004016111a690613863565b60405180910390fd5b81600060086000838152602001908152602001600020600101549050600060096000838152602001908152602001600020600701546009600084815260200190815260200160002060080154019050804211611240576040517f08c379a0000000000000000000000000000000000000000000000000000000008152600401611237906139c3565b60405180910390fd5b84600015156008600083815260200190815260200160002060080160149054906101000a900460ff161515146112ab576040517f08c379a00000000000000000000000000000000000000000000000000000000081526004016112a2906138a3565b60405180910390fd5b600073ffffffffffffffffffffffffffffffffffffffff163373ffffffffffffffffffffffffffffffffffffffff1614156112e557600080fd5b600015156008600088815260200190815260200160002060070160009054906101000a900460ff1615151461134f576040517f08c379a0000000000000000000000000000000000000000000000000000000008152600401611346906138c3565b60405180910390fd5b60016008600088815260200190815260200160002060070160006101000a81548160ff02191690831515021790555060006008600088815260200190815260200160002060080160009054906101000a900473ffffffffffffffffffffffffffffffffffffffff1690506000600860008981526020019081526020016000206005015490508173ffffffffffffffffffffffffffffffffffffffff166108fc829081150290604051600060405180830381858888f1935050505015801561141a573d6000803e3d6000fd5b505050505050505050565b816008600082815260200190815260200160002060070160019054906101000a900473ffffffffffffffffffffffffffffffffffffffff1673ffffffffffffffffffffffffffffffffffffffff163373ffffffffffffffffffffffffffffffffffffffff16146114ca576040517f08c379a00000000000000000000000000000000000000000000000000000000081526004016114c190613863565b60405180910390fd5b8260006008600083815260200190815260200160002060010154905060006009600083815260200190815260200160002060070154600960008481526020019081526020016000206008015401905080421061155b576040517f08c379a000000000000000000000000000000000000000000000000000000000815260040161155290613823565b60405180910390fd5b858560001515600d6000848152602001908152602001600020600083815260200190815260200160002060000160009054906101000a900460ff161515146115d8576040517f08c379a00000000000000000000000000000000000000000000000000000000081526004016115cf90613983565b60405180910390fd5b87600015156008600083815260200190815260200160002060080160149054906101000a900460ff16151514611643576040517f08c379a000000000000000000000000000000000000000000000000000000000815260040161163a906138a3565b60405180910390fd5b600073ffffffffffffffffffffffffffffffffffffffff163373ffffffffffffffffffffffffffffffffffffffff16141561167d57600080fd5b6001600d60008b815260200190815260200160002060008a815260200190815260200160002060000160006101000a81548160ff02191690831515021790555060066000815480929190600101919050555060405180610120016040528060065481526020018a8152602001898152602001428152602001600860008c815260200190815260200160002060070160019054906101000a900473ffffffffffffffffffffffffffffffffffffffff1673ffffffffffffffffffffffffffffffffffffffff168152602001600860008c815260200190815260200160002060080160009054906101000a900473ffffffffffffffffffffffffffffffffffffffff1673ffffffffffffffffffffffffffffffffffffffff16815260200160001515815260200160001515815260200160001515815250600b600060065481526020019081526020016000206000820151816000015560208201518160010155604082015181600201556060820151816003015560808201518160040160006101000a81548173ffffffffffffffffffffffffffffffffffffffff021916908373ffffffffffffffffffffffffffffffffffffffff16021790555060a08201518160050160006101000a81548173ffffffffffffffffffffffffffffffffffffffff021916908373ffffffffffffffffffffffffffffffffffffffff16021790555060c08201518160050160146101000a81548160ff02191690831515021790555060e08201518160050160156101000a81548160ff0219169083151502179055506101008201518160050160166101000a81548160ff021916908315150217905550905050505050505050505050565b806008600082815260200190815260200160002060080160009054906101000a900473ffffffffffffffffffffffffffffffffffffffff1673ffffffffffffffffffffffffffffffffffffffff163373ffffffffffffffffffffffffffffffffffffffff1614611991576040517f08c379a000000000000000000000000000000000000000000000000000000000815260040161198890613883565b60405180910390fd5b81600062278d0060086000848152602001908152602001600020600601540190508042146119f4576040517f08c379a00000000000000000000000000000000000000000000000000000000081526004016119eb906138e3565b60405180910390fd5b836008600082815260200190815260200160002060040154341015611a4e576040517f08c379a0000000000000000000000000000000000000000000000000000000008152600401611a4590613903565b60405180910390fd5b84600015156008600083815260200190815260200160002060080160149054906101000a900460ff16151514611ab9576040517f08c379a0000000000000000000000000000000000000000000000000000000008152600401611ab0906138a3565b60405180910390fd5b600073ffffffffffffffffffffffffffffffffffffffff163373ffffffffffffffffffffffffffffffffffffffff161415611af357600080fd5b60006008600088815260200190815260200160002060070160019054906101000a900473ffffffffffffffffffffffffffffffffffffffff1690506000600860008981526020019081526020016000206004015490508173ffffffffffffffffffffffffffffffffffffffff166108fc829081150290604051600060405180830381858888f19350505050158015611b8f573d6000803e3d6000fd5b5033600860008a815260200190815260200160002060080160006101000a81548173ffffffffffffffffffffffffffffffffffffffff021916908373ffffffffffffffffffffffffffffffffffffffff1602179055506000600860008a815260200190815260200160002060070160006101000a81548160ff0219169083151502179055506005600081548092919060010191905055506040518061014001604052806005548152602001898152602001600860008b8152602001908152602001600020600101548152602001600860008b81526020019081526020016000206002018054600181600116156101000203166002900480601f016020809104026020016040519081016040528092919081815260200182805460018160011615610100020316600290048015611d065780601f10611cdb57610100808354040283529160200191611d06565b820191906000526020600020905b815481529060010190602001808311611ce957829003601f168201915b50505050508152602001600860008b81526020019081526020016000206003018054600181600116156101000203166002900480601f016020809104026020016040519081016040528092919081815260200182805460018160011615610100020316600290048015611dba5780601f10611d8f57610100808354040283529160200191611dba565b820191906000526020600020905b815481529060010190602001808311611d9d57829003601f168201915b505050505081526020018281526020014281526020013373ffffffffffffffffffffffffffffffffffffffff168152602001600860008b815260200190815260200160002060070160019054906101000a900473ffffffffffffffffffffffffffffffffffffffff1673ffffffffffffffffffffffffffffffffffffffff168152602001600860008b815260200190815260200160002060090154815250600a600060055481526020019081526020016000206000820151816000015560208201518160010155604082015181600201556060820151816003019080519060200190611ea79291906130cc565b506080820151816004019080519060200190611ec49291906130cc565b5060a0820151816005015560c0820151816006015560e08201518160070160006101000a81548173ffffffffffffffffffffffffffffffffffffffff021916908373ffffffffffffffffffffffffffffffffffffffff1602179055506101008201518160080160006101000a81548173ffffffffffffffffffffffffffffffffffffffff021916908373ffffffffffffffffffffffffffffffffffffffff16021790555061012082015181600901559050505050505050505050565b6000806008600084815260200190815260200160002060040154905080915050919050565b6000806008600084815260200190815260200160002060040154905060006008600085815260200190815260200160002060050154905060008183019050809350505050919050565b600c602052816000526040600020602052806000526040600020600091509150508060000160009054906101000a900460ff16905081565b600d602052816000526040600020602052806000526040600020600091509150508060000160009054906101000a900460ff16905081565b6008602052806000526040600020600091509050806000015490806001015490806002018054600181600116156101000203166002900480601f0160208091040260200160405190810160405280929190818152602001828054600181600116156101000203166002900480156121165780601f106120eb57610100808354040283529160200191612116565b820191906000526020600020905b8154815290600101906020018083116120f957829003601f168201915b505050505090806003018054600181600116156101000203166002900480601f0160208091040260200160405190810160405280929190818152602001828054600181600116156101000203166002900480156121b45780601f10612189576101008083540402835291602001916121b4565b820191906000526020600020905b81548152906001019060200180831161219757829003601f168201915b5050505050908060040154908060050154908060060154908060070160009054906101000a900460ff16908060070160019054906101000a900473ffffffffffffffffffffffffffffffffffffffff16908060080160009054906101000a900473ffffffffffffffffffffffffffffffffffffffff16908060080160149054906101000a900460ff1690806009015490508c565b6000809054906101000a900473ffffffffffffffffffffffffffffffffffffffff1673ffffffffffffffffffffffffffffffffffffffff163373ffffffffffffffffffffffffffffffffffffffff16146122d7576040517f08c379a00000000000000000000000000000000000000000000000000000000081526004016122ce90613943565b60405180910390fd5b600073ffffffffffffffffffffffffffffffffffffffff163373ffffffffffffffffffffffffffffffffffffffff16141561231157600080fd5b60001515600b600083815260200190815260200160002060050160169054906101000a900460ff1615151461237b576040517f08c379a0000000000000000000000000000000000000000000000000000000008152600401612372906139a3565b60405180910390fd5b6000600d6000858152602001908152602001600020600084815260200190815260200160002060000160006101000a81548160ff0219169083151502179055506001600b600083815260200190815260200160002060050160156101000a81548160ff0219169083151502179055506001600b600083815260200190815260200160002060050160166101000a81548160ff021916908315150217905550505050565b6000809054906101000a900473ffffffffffffffffffffffffffffffffffffffff1673ffffffffffffffffffffffffffffffffffffffff163373ffffffffffffffffffffffffffffffffffffffff16146124ad576040517f08c379a00000000000000000000000000000000000000000000000000000000081526004016124a490613943565b60405180910390fd5b8160006008600083815260200190815260200160002060010154905060006009600083815260200190815260200160002060070154600960008481526020019081526020016000206008015401905080421061253e576040517f08c379a000000000000000000000000000000000000000000000000000000000815260040161253590613823565b60405180910390fd5b84600015156008600083815260200190815260200160002060080160149054906101000a900460ff161515146125a9576040517f08c379a00000000000000000000000000000000000000000000000000000000081526004016125a0906138a3565b60405180910390fd5b600073ffffffffffffffffffffffffffffffffffffffff163373ffffffffffffffffffffffffffffffffffffffff1614156125e357600080fd5b60001515600b600087815260200190815260200160002060050160169054906101000a900460ff1615151461264d576040517f08c379a0000000000000000000000000000000000000000000000000000000008152600401612644906139a3565b60405180910390fd5b60016008600088815260200190815260200160002060070160006101000a81548160ff0219169083151502179055506001600b600087815260200190815260200160002060050160146101000a81548160ff0219169083151502179055506001600b600087815260200190815260200160002060050160166101000a81548160ff021916908315150217905550505050505050565b6000809054906101000a900473ffffffffffffffffffffffffffffffffffffffff1673ffffffffffffffffffffffffffffffffffffffff163373ffffffffffffffffffffffffffffffffffffffff1614612771576040517f08c379a000000000000000000000000000000000000000000000000000000000815260040161276890613943565b60405180910390fd5b600073ffffffffffffffffffffffffffffffffffffffff163373ffffffffffffffffffffffffffffffffffffffff1614156127ab57600080fd5b600015156008600083815260200190815260200160002060080160149054906101000a900460ff161515141561280f5760016008600083815260200190815260200160002060080160146101000a81548160ff02191690831515021790555061283f565b60006008600083815260200190815260200160002060080160146101000a81548160ff0219169083151502179055505b50565b6000806008600084815260200190815260200160002060050154905080915050919050565b6009602052806000526040600020600091509050806000015490806001015490806002018054600181600116156101000203166002900480601f01602080910402602001604051908101604052809291908181526020018280546001816001161561010002031660029004801561291f5780601f106128f45761010080835404028352916020019161291f565b820191906000526020600020905b81548152906001019060200180831161290257829003601f168201915b505050505090806003018054600181600116156101000203166002900480601f0160208091040260200160405190810160405280929190818152602001828054600181600116156101000203166002900480156129bd5780601f10612992576101008083540402835291602001916129bd565b820191906000526020600020905b8154815290600101906020018083116129a057829003601f168201915b5050505050908060040154908060050154908060060154908060070154908060080154908060090160009054906101000a900473ffffffffffffffffffffffffffffffffffffffff169080600a0160009054906101000a900473ffffffffffffffffffffffffffffffffffffffff169080600b015490508c565b60035481565b6000806008600084815260200190815260200160002060070160019054906101000a900473ffffffffffffffffffffffffffffffffffffffff16905080915050919050565b60075481565b6000809054906101000a900473ffffffffffffffffffffffffffffffffffffffff1673ffffffffffffffffffffffffffffffffffffffff163373ffffffffffffffffffffffffffffffffffffffff1614612b17576040517f08c379a0000000000000000000000000000000000000000000000000000000008152600401612b0e90613943565b60405180910390fd5b600073ffffffffffffffffffffffffffffffffffffffff163373ffffffffffffffffffffffffffffffffffffffff161415612b5157600080fd5b6000811015612b95576040517f08c379a0000000000000000000000000000000000000000000000000000000008152600401612b8c90613923565b60405180910390fd5b60648110612bd8576040517f08c379a0000000000000000000000000000000000000000000000000000000008152600401612bcf90613843565b60405180910390fd5b8060078190555050565b60065481565b600073ffffffffffffffffffffffffffffffffffffffff163373ffffffffffffffffffffffffffffffffffffffff161415612c2257600080fd5b6003600081548092919060010191905055506000600190506040518061018001604052806003548152602001600081526020018781526020018681526020018581526020018481526020016000815260200182151581526020013373ffffffffffffffffffffffffffffffffffffffff168152602001600073ffffffffffffffffffffffffffffffffffffffff1681526020016000151581526020018381525060086000600354815260200190815260200160002060008201518160000155602082015181600101556040820151816002019080519060200190612d079291906130cc565b506060820151816003019080519060200190612d249291906130cc565b506080820151816004015560a0820151816005015560c0820151816006015560e08201518160070160006101000a81548160ff0219169083151502179055506101008201518160070160016101000a81548173ffffffffffffffffffffffffffffffffffffffff021916908373ffffffffffffffffffffffffffffffffffffffff1602179055506101208201518160080160006101000a81548173ffffffffffffffffffffffffffffffffffffffff021916908373ffffffffffffffffffffffffffffffffffffffff1602179055506101408201518160080160146101000a81548160ff0219169083151502179055506101608201518160090155905050505050505050565b600a602052806000526040600020600091509050806000015490806001015490806002015490806003018054600181600116156101000203166002900480601f016020809104026020016040519081016040528092919081815260200182805460018160011615610100020316600290048015612ee85780601f10612ebd57610100808354040283529160200191612ee8565b820191906000526020600020905b815481529060010190602001808311612ecb57829003601f168201915b505050505090806004018054600181600116156101000203166002900480601f016020809104026020016040519081016040528092919081815260200182805460018160011615610100020316600290048015612f865780601f10612f5b57610100808354040283529160200191612f86565b820191906000526020600020905b815481529060010190602001808311612f6957829003601f168201915b5050505050908060050154908060060154908060070160009054906101000a900473ffffffffffffffffffffffffffffffffffffffff16908060080160009054906101000a900473ffffffffffffffffffffffffffffffffffffffff1690806009015490508a565b600b6020528060005260406000206000915090508060000154908060010154908060020154908060030154908060040160009054906101000a900473ffffffffffffffffffffffffffffffffffffffff16908060050160009054906101000a900473ffffffffffffffffffffffffffffffffffffffff16908060050160149054906101000a900460ff16908060050160159054906101000a900460ff16908060050160169054906101000a900460ff16905089565b60008060009054906101000a900473ffffffffffffffffffffffffffffffffffffffff16905090565b828054600181600116156101000203166002900490600052602060002090601f016020900481019282601f1061310d57805160ff191683800117855561313b565b8280016001018555821561313b579182015b8281111561313a57825182559160200191906001019061311f565b5b509050613148919061314c565b5090565b61316e91905b8082111561316a576000816000905550600101613152565b5090565b90565b60008135905061318081613de7565b92915050565b600082601f83011261319757600080fd5b81356131aa6131a582613cf2565b613cc5565b915080825260208301602083018583830111156131c657600080fd5b6131d1838284613d94565b50505092915050565b6000813590506131e981613dfe565b92915050565b6000806040838503121561320257600080fd5b600061321085828601613171565b9250506020613221858286016131da565b9150509250929050565b600080600080600060a0868803121561324357600080fd5b600086013567ffffffffffffffff81111561325d57600080fd5b61326988828901613186565b955050602086013567ffffffffffffffff81111561328657600080fd5b61329288828901613186565b94505060406132a3888289016131da565b93505060606132b4888289016131da565b92505060806132c5888289016131da565b9150509295509295909350565b6000602082840312156132e457600080fd5b60006132f2848285016131da565b91505092915050565b6000806040838503121561330e57600080fd5b600061331c858286016131da565b925050602061332d858286016131da565b9150509250929050565b60008060006060848603121561334c57600080fd5b600061335a868287016131da565b935050602061336b868287016131da565b925050604061337c868287016131da565b9150509250925092565b61338f81613d4c565b82525050565b61339e81613d3a565b82525050565b6133ad81613d5e565b82525050565b60006133be82613d1e565b6133c88185613d29565b93506133d8818560208601613da3565b6133e181613dd6565b840191505092915050565b60006133f9601783613d29565b91507f41677265656d656e7420616c726561647920456e6465640000000000000000006000830152602082019050919050565b6000613439602183613d29565b91507f63616e206e6f7420626520657175616c206f72206d6f7265207468616e20313060008301527f30000000000000000000000000000000000000000000000000000000000000006020830152604082019050919050565b600061349f601d83613d29565b91507f4f6e6c792070726f73756d65722063616e2061636365737320746869730000006000830152602082019050919050565b60006134df602f83613d29565b91507f4e6f2070726576696f75732061677265656d656e7420666f756e64207769746860008301527f20796f7520262070726f73756d657200000000000000000000000000000000006020830152604082019050919050565b6000613545601d83613d29565b91507f456e6572677944657669636520416c72656164792044697361626c65640000006000830152602082019050919050565b6000613585602383613d29565b91507f456e657267794465766963652069732063757272656e746c79204f636375706960008301527f65642e00000000000000000000000000000000000000000000000000000000006020830152604082019050919050565b60006135eb601983613d29565b91507f54696d65206c65667420746f2070617920436f6e73756d6572000000000000006000830152602082019050919050565b600061362b601f83613d29565b91507f4e6f7420656e6f75676820457468657220696e20796f75722077616c6c6574006000830152602082019050919050565b600061366b601383613d29565b91507f63616e206e6f74206265206e65676174697665000000000000000000000000006000830152602082019050919050565b60006136ab601a83613d29565b91507f4f6e6c792041646d696e2063616e2061636365737320746869730000000000006000830152602082019050919050565b60006136eb601d83613d29565b91507f4f6e6c7920636f6e73756d65722063616e2061636365737320746869730000006000830152602082019050919050565b600061372b601183613d29565b91507f416c7265616479205265717565737465640000000000000000000000000000006000830152602082019050919050565b600061376b601983613d29565b91507f5265717565737420416c726561647920436f6d706c65746564000000000000006000830152602082019050919050565b60006137ab601e83613d29565b91507f54696d6573206c65667420666f7220636f6e747261637420746f20656e6400006000830152602082019050919050565b6137e781613d8a565b82525050565b60006020820190506138026000830184613395565b92915050565b600060208201905061381d60008301846133a4565b92915050565b6000602082019050818103600083015261383c816133ec565b9050919050565b6000602082019050818103600083015261385c8161342c565b9050919050565b6000602082019050818103600083015261387c81613492565b9050919050565b6000602082019050818103600083015261389c816134d2565b9050919050565b600060208201905081810360008301526138bc81613538565b9050919050565b600060208201905081810360008301526138dc81613578565b9050919050565b600060208201905081810360008301526138fc816135de565b9050919050565b6000602082019050818103600083015261391c8161361e565b9050919050565b6000602082019050818103600083015261393c8161365e565b9050919050565b6000602082019050818103600083015261395c8161369e565b9050919050565b6000602082019050818103600083015261397c816136de565b9050919050565b6000602082019050818103600083015261399c8161371e565b9050919050565b600060208201905081810360008301526139bc8161375e565b9050919050565b600060208201905081810360008301526139dc8161379e565b9050919050565b60006020820190506139f860008301846137de565b92915050565b600061018082019050613a14600083018f6137de565b613a21602083018e6137de565b8181036040830152613a33818d6133b3565b90508181036060830152613a47818c6133b3565b9050613a56608083018b6137de565b613a6360a083018a6137de565b613a7060c08301896137de565b613a7d60e08301886133a4565b613a8b610100830187613386565b613a99610120830186613386565b613aa76101408301856133a4565b613ab56101608301846137de565b9d9c50505050505050505050505050565b600061018082019050613adc600083018f6137de565b613ae9602083018e6137de565b8181036040830152613afb818d6133b3565b90508181036060830152613b0f818c6133b3565b9050613b1e608083018b6137de565b613b2b60a083018a6137de565b613b3860c08301896137de565b613b4560e08301886137de565b613b536101008301876137de565b613b61610120830186613386565b613b6f610140830185613386565b613b7d6101608301846137de565b9d9c50505050505050505050505050565b600061014082019050613ba4600083018d6137de565b613bb1602083018c6137de565b613bbe604083018b6137de565b8181036060830152613bd0818a6133b3565b90508181036080830152613be481896133b3565b9050613bf360a08301886137de565b613c0060c08301876137de565b613c0d60e0830186613386565b613c1b610100830185613386565b613c296101208301846137de565b9b9a5050505050505050505050565b600061012082019050613c4e600083018c6137de565b613c5b602083018b6137de565b613c68604083018a6137de565b613c7560608301896137de565b613c826080830188613395565b613c8f60a0830187613395565b613c9c60c08301866133a4565b613ca960e08301856133a4565b613cb76101008301846133a4565b9a9950505050505050505050565b6000604051905081810181811067ffffffffffffffff82111715613ce857600080fd5b8060405250919050565b600067ffffffffffffffff821115613d0957600080fd5b601f19601f8301169050602081019050919050565b600081519050919050565b600082825260208201905092915050565b6000613d4582613d6a565b9050919050565b6000613d5782613d6a565b9050919050565b60008115159050919050565b600073ffffffffffffffffffffffffffffffffffffffff82169050919050565b6000819050919050565b82818337600083830152505050565b60005b83811015613dc1578082015181840152602081019050613da6565b83811115613dd0576000848401525b50505050565b6000601f19601f8301169050919050565b613df081613d3a565b8114613dfb57600080fd5b50565b613e0781613d8a565b8114613e1257600080fd5b5056fea365627a7a72315820243ac0e6d0f7216191c2d2dce5986fd7369b026ab7403297dbda6999e64ae4ef6c6578706572696d656e74616cf564736f6c63430005100040",
  "source": "pragma solidity ^0.5.16;\npragma experimental ABIEncoderV2;\ncontract EnergyAgreement{\n    address payable admin;\n    address payable consumer;\n    address payable prosumer;\n    uint public no_of_energydevices = 0;\n    uint public no_of_agreement = 0;\n    uint public no_of_consumers = 0;\n    uint public no_of_terminationrequest = 0;\n    uint public commisionpercentage = 5;\n\n    constructor() public{\n        admin = msg.sender;\n    }\n    \n    struct EnergyDevice{\n        uint energydeviceid;\n        uint agreementid;\n        string housename;\n        string houseaddress;\n        uint price;\n        uint securityDeposit;\n        uint timestamp;\n        bool vacant;\n        address payable prosumer;\n        address payable currentProsumer;\n        //uint reports;\n        bool disableroom;\n        uint energy_in_kwh;\n\n    }\n    \n    mapping(uint => EnergyDevice) public Energydevice_by_No;\n    \n    struct EnergyAgreement{\n        uint energydeviceid;\n        uint agreementid;\n        string Roomname;\n        string RoomAddresss;\n        uint price;\n        uint securityDeposit;\n        uint commisionpercentage;\n        uint lockInPeriod;\n        uint timestamp;\n        address payable consumerAddress;\n        address payable prosumerAddress;\n        uint energy_in_kwh;\n\n    }\n    \n   mapping(uint => EnergyAgreement) public EnergyAgreement_by_No;\n    \n    struct Consumer{\n        uint consumerno;\n        uint energydeviceid;\n        uint agreementid;\n        string Roomname;\n        string RoomAddresss;\n        uint price;\n        uint timestamp;\n        address payable consumerAddress;\n        address payable prosumerAddress;\n        uint energy_in_kwh;\n\n    }\n    \n   mapping(uint => Consumer) public Consumer_by_No;\n    \n    struct RequestAgreementTermination{\n        uint terminationno;\n        uint energydeviceid;\n        uint agreementid;\n        uint timestamp;\n        address prosumer;\n        address consumer;\n        bool terminated;\n        bool rejected;\n        bool completed;\n    }\n\n    mapping(uint => RequestAgreementTermination) public RequestAgreementTermination_By_No;\n    \n    struct Reporter{\n        bool reported;\n    }\n  \n    mapping(address => mapping(uint =>  Reporter)) public reporters;\n  \n    struct Terminationreq{\n        bool requested;\n    }\n    \n    mapping(uint => mapping(uint =>  Terminationreq)) public terminationreq;\n\n\n    modifier onlyAdmin() {\n        require(msg.sender == admin, \"Only Admin can access this\");\n        _;\n    }\n    \n    modifier onlyProsumer(uint _index) {\n        require(msg.sender == Energydevice_by_No[_index].prosumer, \"Only prosumer can access this\");\n        _;\n    }\n    \n    modifier notProsumer(uint _index) {\n        require(msg.sender != Energydevice_by_No[_index].prosumer, \"Only consumer can access this\");\n        _;\n    }\n    \n    modifier OnlyWhileVacant(uint _index){\n        \n        require(Energydevice_by_No[_index].vacant == true, \"EnergyDevice is currently Occupied.\");\n        _;\n    }\n    \n    modifier enoughPrice(uint _index) {\n        require(msg.value >= uint(Energydevice_by_No[_index].price), \"Not enough Ether in your wallet\");\n        _;\n    }\n    \n    modifier enoughAgreementfee(uint _index) {\n        require(msg.value >= uint(uint(Energydevice_by_No[_index].price) + uint(Energydevice_by_No[_index].securityDeposit)), \"Not enough Ether in your wallet\");\n        _;\n    }\n    \n    modifier sameConsumer(uint _index) {\n        require(msg.sender == Energydevice_by_No[_index].currentProsumer, \"No previous agreement found with you & prosumer\");\n        _;\n    }\n    \n    modifier AgreementTimesLeft(uint _index) {\n        uint _AgreementNo = Energydevice_by_No[_index].agreementid;\n        uint time = EnergyAgreement_by_No[_AgreementNo].timestamp + EnergyAgreement_by_No[_AgreementNo].lockInPeriod;\n        require(now < time, \"Agreement already Ended\");\n        _;\n    }\n    \n    modifier AgreementTimesUp(uint _index) {\n        uint _AgreementNo = Energydevice_by_No[_index].agreementid;\n        uint time = EnergyAgreement_by_No[_AgreementNo].timestamp + EnergyAgreement_by_No[_AgreementNo].lockInPeriod;\n        require(now > time, \"Times left for contract to end\");\n        _;\n    }\n    \n    modifier ConsumerTimesUp(uint _index) {\n        uint time = Energydevice_by_No[_index].timestamp + 30 days;\n        require(now == time, \"Time left to pay Consumer\");\n        _;\n    }\n\n    modifier notrequested(uint _index, uint _agreementid){\n        require(terminationreq[_index][_agreementid].requested == false, \"Already Requested\");\n        _;\n    }\n    \n    modifier enabled(uint _index){\n        require(Energydevice_by_No[_index].disableroom == false, \"EnergyDevice Already Disabled\");\n        _;\n    }\n    \n    function addEnergydevice(string memory _housename, string memory _houseaddress, uint _price, uint  _securitydeposit, uint _energy_in_kwh) public {\n        require(msg.sender != address(0));\n        no_of_energydevices ++;\n        bool _vacancy = true;\n        Energydevice_by_No[no_of_energydevices] = EnergyDevice(no_of_energydevices,0,_housename,_houseaddress, _price,_securitydeposit,0,_vacancy, msg.sender, address(0),false,_energy_in_kwh); \n        \n    }\n    \n    function signAgreement(uint _index) public payable notProsumer(_index) enoughAgreementfee(_index) OnlyWhileVacant(_index) enabled( _index){\n        require(msg.sender != address(0));\n        address payable _prosumer = Energydevice_by_No[_index].prosumer;\n        uint totalfee = Energydevice_by_No[_index].price + Energydevice_by_No[_index].securityDeposit;\n        \n        uint commision = (totalfee*commisionpercentage)/100;\n        uint rest = totalfee - commision;\n        admin.transfer(commision);\n        _prosumer.transfer(rest);\n        \n        no_of_agreement++;\n\n        Energydevice_by_No[_index].currentProsumer = msg.sender;\n        Energydevice_by_No[_index].vacant = false;\n        Energydevice_by_No[_index].timestamp = block.timestamp;\n        Energydevice_by_No[_index].agreementid = no_of_agreement;\n        EnergyAgreement_by_No[no_of_agreement]=EnergyAgreement(_index,no_of_agreement,Energydevice_by_No[_index].housename,Energydevice_by_No[_index].houseaddress,Energydevice_by_No[_index].price,Energydevice_by_No[_index].securityDeposit,commisionpercentage,365 days,block.timestamp,msg.sender,_prosumer,Energydevice_by_No[_index].energy_in_kwh);\n        no_of_consumers++;\n        Consumer_by_No[no_of_consumers] = Consumer(no_of_consumers,_index,no_of_agreement,Energydevice_by_No[_index].housename,Energydevice_by_No[_index].houseaddress,Energydevice_by_No[_index].price,now,msg.sender,_prosumer,Energydevice_by_No[_index].energy_in_kwh);\n        \n    }\n    \n    function payConsumerforenergy(uint _index) public payable sameConsumer(_index) ConsumerTimesUp(_index) enoughPrice(_index) enabled( _index){\n        require(msg.sender != address(0));\n        address payable _prosumer = Energydevice_by_No[_index].prosumer;\n        uint prrice = Energydevice_by_No[_index].price;\n        \n        _prosumer.transfer(prrice);\n        \n        Energydevice_by_No[_index].currentProsumer = msg.sender;\n        Energydevice_by_No[_index].vacant = false;\n        no_of_consumers++;\n        Consumer_by_No[no_of_consumers] = Consumer(no_of_consumers,_index,Energydevice_by_No[_index].agreementid,Energydevice_by_No[_index].housename,Energydevice_by_No[_index].houseaddress,prrice,now,msg.sender,Energydevice_by_No[_index].prosumer,Energydevice_by_No[_index].energy_in_kwh);\n    }\n\n    function agreementCompleted(uint _index) public payable onlyProsumer(_index) AgreementTimesUp(_index) enabled( _index){\n        require(msg.sender != address(0));\n        require(Energydevice_by_No[_index].vacant == false, \"EnergyDevice is currently Occupied.\");\n        Energydevice_by_No[_index].vacant = true;\n        address payable _Tenant = Energydevice_by_No[_index].currentProsumer;\n        uint _securitydeposit = Energydevice_by_No[_index].securityDeposit;\n        _Tenant.transfer(_securitydeposit);\n    }\n    \n    function agreementTerminated(uint _index, uint _terminateno) public onlyAdmin() AgreementTimesLeft(_index) enabled( _index){\n        require(msg.sender != address(0));\n        require(RequestAgreementTermination_By_No[_terminateno].completed == false, \"Request Already Completed\");\n        Energydevice_by_No[_index].vacant = true;\n        RequestAgreementTermination_By_No[_terminateno].terminated = true;\n        RequestAgreementTermination_By_No[_terminateno].completed = true;\n\n    }\n\n    function reject(uint _index, uint _agreementno, uint _terminateno) public onlyAdmin() {\n        require(msg.sender != address(0));\n        require(RequestAgreementTermination_By_No[_terminateno].completed == false, \"Request Already Completed\");\n        terminationreq[_index][_agreementno].requested = false;\n        RequestAgreementTermination_By_No[_terminateno].rejected = true;\n        RequestAgreementTermination_By_No[_terminateno].completed = true;\n    }\n    \n    function requestTermination(uint _index,uint _agreementid) public onlyProsumer(_index) AgreementTimesLeft(_index) notrequested(_index,_agreementid) enabled( _index){\n        require(msg.sender != address(0));\n        terminationreq[_index][_agreementid].requested = true;\n        no_of_terminationrequest++;\n        RequestAgreementTermination_By_No[no_of_terminationrequest] = RequestAgreementTermination(no_of_terminationrequest,_index,_agreementid,now,Energydevice_by_No[_index].prosumer,Energydevice_by_No[_index].currentProsumer,false,false,false);\n        \n    }\n     \n    function changeCommision(uint _commision) public onlyAdmin() {\n        require(msg.sender != address(0));\n        require(_commision >= 0, \"can not be negative\");\n        require(_commision < 100, \"can not be equal or more than 100\");\n        commisionpercentage = _commision;\n    }\n    \n    function disableEnergydevice(uint _index) public onlyAdmin() {\n        require(msg.sender != address(0));\n        if(Energydevice_by_No[_index].disableroom == false){\n            Energydevice_by_No[_index].disableroom = true;\n        }else{\n            Energydevice_by_No[_index].disableroom = false;\n        }\n    }\n    \n    function Admin() public returns (address){\n        return(admin);\n    }\n    \n    function totalfee(uint _index) public returns (uint){\n        uint consumerbill = Energydevice_by_No[_index].price;\n        uint securityDeposit = Energydevice_by_No[_index].securityDeposit;\n        uint total =  consumerbill + securityDeposit;\n        return(total);\n    }\n    \n    function consumerbill(uint _index) public returns (uint){\n        uint consumerbill = Energydevice_by_No[_index].price;\n        return(consumerbill);\n    }\n\n    function securitydeposit(uint _index) public returns (uint){\n        uint consumerbill = Energydevice_by_No[_index].securityDeposit;\n        return(consumerbill);\n    }\n\n    function prosumerAddress(uint _index) public returns (address){\n        address prosumerAddress = Energydevice_by_No[_index].prosumer;\n        return(prosumerAddress);\n    }\n\n}\n    ",
  "sourcePath": "D:\\Final Yr Project\\ENergy Dapp\\src\\contracts\\EnergyAgreement.sol",
  "compiler": {
    "name": "solc",
    "version": "0.5.16+commit.9c3226ce.Emscripten.clang"
  },
  "schemaVersion": "3.4.7",
  "updatedAt": "2022-05-20T09:05:13.976Z",
  "networkType": "ethereum",
  "devdoc": {
    "methods": {}
  },
  "userdoc": {
    "methods": {}
  }
}