{
  "contractName": "FoodOrder",
  "abi": [
    {
      "inputs": [],
      "payable": false,
      "stateMutability": "nonpayable",
      "type": "constructor"
    },
    {
      "anonymous": false,
      "inputs": [
        {
          "indexed": false,
          "internalType": "string",
          "name": "_name",
          "type": "string"
        },
        {
          "indexed": false,
          "internalType": "uint256",
          "name": "_price",
          "type": "uint256"
        },
        {
          "indexed": false,
          "internalType": "uint256",
          "name": "_available",
          "type": "uint256"
        },
        {
          "indexed": false,
          "internalType": "string",
          "name": "_category",
          "type": "string"
        }
      ],
      "name": "addedFood",
      "type": "event"
    },
    {
      "anonymous": false,
      "inputs": [
        {
          "indexed": false,
          "internalType": "string",
          "name": "name",
          "type": "string"
        },
        {
          "indexed": false,
          "internalType": "uint256",
          "name": "_available",
          "type": "uint256"
        }
      ],
      "name": "availabilityChanged",
      "type": "event"
    },
    {
      "anonymous": false,
      "inputs": [
        {
          "indexed": false,
          "internalType": "address payable",
          "name": "canteenOwner",
          "type": "address"
        },
        {
          "indexed": false,
          "internalType": "address payable",
          "name": "_canteenOwner",
          "type": "address"
        }
      ],
      "name": "changedCanteenOwner",
      "type": "event"
    },
    {
      "anonymous": false,
      "inputs": [
        {
          "indexed": false,
          "internalType": "uint256",
          "name": "_collegeFees",
          "type": "uint256"
        }
      ],
      "name": "changedCollegeFees",
      "type": "event"
    },
    {
      "anonymous": false,
      "inputs": [
        {
          "indexed": false,
          "internalType": "string",
          "name": "_name",
          "type": "string"
        }
      ],
      "name": "deletedItem",
      "type": "event"
    },
    {
      "anonymous": false,
      "inputs": [
        {
          "indexed": false,
          "internalType": "uint256",
          "name": "orderNumber",
          "type": "uint256"
        },
        {
          "indexed": false,
          "internalType": "string",
          "name": "name",
          "type": "string"
        },
        {
          "indexed": false,
          "internalType": "uint256",
          "name": "hostelOrTable",
          "type": "uint256"
        },
        {
          "indexed": false,
          "internalType": "uint256",
          "name": "number",
          "type": "uint256"
        }
      ],
      "name": "ordered",
      "type": "event"
    },
    {
      "anonymous": false,
      "inputs": [
        {
          "indexed": false,
          "internalType": "string",
          "name": "name",
          "type": "string"
        },
        {
          "indexed": false,
          "internalType": "uint256",
          "name": "_price",
          "type": "uint256"
        }
      ],
      "name": "priceChanged",
      "type": "event"
    },
    {
      "constant": true,
      "inputs": [],
      "name": "admin",
      "outputs": [
        {
          "internalType": "address payable",
          "name": "",
          "type": "address"
        }
      ],
      "payable": false,
      "stateMutability": "view",
      "type": "function"
    },
    {
      "constant": true,
      "inputs": [],
      "name": "canteenOwner",
      "outputs": [
        {
          "internalType": "address payable",
          "name": "",
          "type": "address"
        }
      ],
      "payable": false,
      "stateMutability": "view",
      "type": "function"
    },
    {
      "constant": true,
      "inputs": [],
      "name": "collegeFees",
      "outputs": [
        {
          "internalType": "uint256",
          "name": "",
          "type": "uint256"
        }
      ],
      "payable": false,
      "stateMutability": "view",
      "type": "function"
    },
    {
      "constant": true,
      "inputs": [
        {
          "internalType": "uint256",
          "name": "",
          "type": "uint256"
        }
      ],
      "name": "foods",
      "outputs": [
        {
          "internalType": "string",
          "name": "image",
          "type": "string"
        },
        {
          "internalType": "string",
          "name": "name",
          "type": "string"
        },
        {
          "internalType": "uint256",
          "name": "price",
          "type": "uint256"
        },
        {
          "internalType": "uint256",
          "name": "available",
          "type": "uint256"
        },
        {
          "internalType": "string",
          "name": "category",
          "type": "string"
        }
      ],
      "payable": false,
      "stateMutability": "view",
      "type": "function"
    },
    {
      "constant": true,
      "inputs": [],
      "name": "numberOfFoods",
      "outputs": [
        {
          "internalType": "uint256",
          "name": "",
          "type": "uint256"
        }
      ],
      "payable": false,
      "stateMutability": "view",
      "type": "function"
    },
    {
      "constant": true,
      "inputs": [],
      "name": "orderNumber",
      "outputs": [
        {
          "internalType": "uint256",
          "name": "",
          "type": "uint256"
        }
      ],
      "payable": false,
      "stateMutability": "view",
      "type": "function"
    },
    {
      "constant": true,
      "inputs": [
        {
          "internalType": "uint256",
          "name": "",
          "type": "uint256"
        }
      ],
      "name": "orders",
      "outputs": [
        {
          "internalType": "address",
          "name": "customer",
          "type": "address"
        },
        {
          "internalType": "string",
          "name": "name",
          "type": "string"
        },
        {
          "internalType": "uint256",
          "name": "quantity",
          "type": "uint256"
        },
        {
          "internalType": "uint256",
          "name": "hostelOrCanteen",
          "type": "uint256"
        },
        {
          "internalType": "uint256",
          "name": "number",
          "type": "uint256"
        },
        {
          "internalType": "uint256",
          "name": "delivered",
          "type": "uint256"
        },
        {
          "internalType": "uint256",
          "name": "rating",
          "type": "uint256"
        },
        {
          "internalType": "uint256",
          "name": "totalPrice",
          "type": "uint256"
        }
      ],
      "payable": false,
      "stateMutability": "view",
      "type": "function"
    },
    {
      "constant": false,
      "inputs": [
        {
          "internalType": "uint256",
          "name": "index",
          "type": "uint256"
        },
        {
          "internalType": "uint256",
          "name": "quantity",
          "type": "uint256"
        },
        {
          "internalType": "uint256",
          "name": "hostelOrCanteen",
          "type": "uint256"
        },
        {
          "internalType": "uint256",
          "name": "number",
          "type": "uint256"
        }
      ],
      "name": "order",
      "outputs": [],
      "payable": true,
      "stateMutability": "payable",
      "type": "function"
    },
    {
      "constant": false,
      "inputs": [
        {
          "internalType": "uint256",
          "name": "index",
          "type": "uint256"
        },
        {
          "internalType": "uint256",
          "name": "_rating",
          "type": "uint256"
        }
      ],
      "name": "onOrderDelivered",
      "outputs": [],
      "payable": false,
      "stateMutability": "nonpayable",
      "type": "function"
    },
    {
      "constant": false,
      "inputs": [
        {
          "internalType": "uint256",
          "name": "index",
          "type": "uint256"
        }
      ],
      "name": "orderDeliver",
      "outputs": [],
      "payable": false,
      "stateMutability": "nonpayable",
      "type": "function"
    },
    {
      "constant": false,
      "inputs": [
        {
          "internalType": "string",
          "name": "_image",
          "type": "string"
        },
        {
          "internalType": "string",
          "name": "_name",
          "type": "string"
        },
        {
          "internalType": "uint256",
          "name": "_price",
          "type": "uint256"
        },
        {
          "internalType": "uint256",
          "name": "_available",
          "type": "uint256"
        },
        {
          "internalType": "string",
          "name": "_category",
          "type": "string"
        }
      ],
      "name": "addFood",
      "outputs": [],
      "payable": false,
      "stateMutability": "nonpayable",
      "type": "function"
    },
    {
      "constant": false,
      "inputs": [
        {
          "internalType": "uint256",
          "name": "index",
          "type": "uint256"
        },
        {
          "internalType": "string",
          "name": "_newImage",
          "type": "string"
        }
      ],
      "name": "imageChange",
      "outputs": [],
      "payable": false,
      "stateMutability": "nonpayable",
      "type": "function"
    },
    {
      "constant": false,
      "inputs": [
        {
          "internalType": "uint256",
          "name": "index",
          "type": "uint256"
        }
      ],
      "name": "availabilityChange",
      "outputs": [],
      "payable": false,
      "stateMutability": "nonpayable",
      "type": "function"
    },
    {
      "constant": false,
      "inputs": [
        {
          "internalType": "uint256",
          "name": "index",
          "type": "uint256"
        },
        {
          "internalType": "uint256",
          "name": "_price",
          "type": "uint256"
        }
      ],
      "name": "priceChange",
      "outputs": [],
      "payable": false,
      "stateMutability": "nonpayable",
      "type": "function"
    },
    {
      "constant": false,
      "inputs": [
        {
          "internalType": "uint256",
          "name": "index",
          "type": "uint256"
        }
      ],
      "name": "deleteItem",
      "outputs": [],
      "payable": false,
      "stateMutability": "nonpayable",
      "type": "function"
    },
    {
      "constant": false,
      "inputs": [
        {
          "internalType": "address payable",
          "name": "_canteenOwner",
          "type": "address"
        }
      ],
      "name": "changeOwner",
      "outputs": [],
      "payable": false,
      "stateMutability": "nonpayable",
      "type": "function"
    },
    {
      "constant": false,
      "inputs": [
        {
          "internalType": "uint256",
          "name": "_collegeFees",
          "type": "uint256"
        }
      ],
      "name": "changeFees",
      "outputs": [],
      "payable": false,
      "stateMutability": "nonpayable",
      "type": "function"
    }
  ],
  "bytecode": "0x6080604052600560045534801561001557600080fd5b50336000806101000a81548173ffffffffffffffffffffffffffffffffffffffff021916908373ffffffffffffffffffffffffffffffffffffffff16021790555033600160006101000a81548173ffffffffffffffffffffffffffffffffffffffff021916908373ffffffffffffffffffffffffffffffffffffffff16021790555061246c806100a66000396000f3fe6080604052600436106100fe5760003560e01c80637823e07511610095578063a85c38ef11610064578063a85c38ef146105ea578063b04dd81b146106fb578063e1e0d2cf14610726578063e6e18f6b1461076b578063f851a44014610975576100fe565b80637823e075146104e7578063848c6aea1461051257806393a425e61461054d578063a6f9dae114610599576100fe565b8063654fc833116100d1578063654fc8331461034857806366aec9f6146103835780636c4f4175146103da5780636cda375b146104ac576100fe565b80630d5cda701461010357806314d3f10e14610148578063318e0ae4146102e25780635abdfda71461030d575b600080fd5b34801561010f57600080fd5b506101466004803603604081101561012657600080fd5b8101908080359060200190929190803590602001909291905050506109cc565b005b34801561015457600080fd5b506101816004803603602081101561016b57600080fd5b8101908080359060200190929190505050610b83565b60405180806020018060200186815260200185815260200180602001848103845289818151815260200191508051906020019080838360005b838110156101d55780820151818401526020810190506101ba565b50505050905090810190601f1680156102025780820380516001836020036101000a031916815260200191505b50848103835288818151815260200191508051906020019080838360005b8381101561023b578082015181840152602081019050610220565b50505050905090810190601f1680156102685780820380516001836020036101000a031916815260200191505b50848103825285818151815260200191508051906020019080838360005b838110156102a1578082015181840152602081019050610286565b50505050905090810190601f1680156102ce5780820380516001836020036101000a031916815260200191505b509850505050505050505060405180910390f35b3480156102ee57600080fd5b506102f7610d81565b6040518082815260200191505060405180910390f35b34801561031957600080fd5b506103466004803603602081101561033057600080fd5b8101908080359060200190929190505050610d87565b005b34801561035457600080fd5b506103816004803603602081101561036b57600080fd5b8101908080359060200190929190505050610e68565b005b34801561038f57600080fd5b506103986111a9565b604051808273ffffffffffffffffffffffffffffffffffffffff1673ffffffffffffffffffffffffffffffffffffffff16815260200191505060405180910390f35b3480156103e657600080fd5b506104aa600480360360408110156103fd57600080fd5b81019080803590602001909291908035906020019064010000000081111561042457600080fd5b82018360208201111561043657600080fd5b8035906020019184600183028401116401000000008311171561045857600080fd5b91908080601f016020809104026020016040519081016040528093929190818152602001838380828437600081840152601f19601f8201169050808301925050505050505091929192905050506111ce565b005b3480156104b857600080fd5b506104e5600480360360208110156104cf57600080fd5b81019080803590602001909291905050506112bf565b005b3480156104f357600080fd5b506104fc6113c3565b6040518082815260200191505060405180910390f35b34801561051e57600080fd5b5061054b6004803603602081101561053557600080fd5b81019080803590602001909291905050506113c9565b005b6105976004803603608081101561056357600080fd5b810190808035906020019092919080359060200190929190803590602001909291908035906020019092919050505061165d565b005b3480156105a557600080fd5b506105e8600480360360208110156105bc57600080fd5b81019080803573ffffffffffffffffffffffffffffffffffffffff1690602001909291905050506119fa565b005b3480156105f657600080fd5b506106236004803603602081101561060d57600080fd5b8101908080359060200190929190505050611bb8565b604051808973ffffffffffffffffffffffffffffffffffffffff1673ffffffffffffffffffffffffffffffffffffffff16815260200180602001888152602001878152602001868152602001858152602001848152602001838152602001828103825289818151815260200191508051906020019080838360005b838110156106b957808201518184015260208101905061069e565b50505050905090810190601f1680156106e65780820380516001836020036101000a031916815260200191505b50995050505050505050505060405180910390f35b34801561070757600080fd5b50610710611cb8565b6040518082815260200191505060405180910390f35b34801561073257600080fd5b506107696004803603604081101561074957600080fd5b810190808035906020019092919080359060200190929190505050611cbe565b005b34801561077757600080fd5b50610973600480360360a081101561078e57600080fd5b81019080803590602001906401000000008111156107ab57600080fd5b8201836020820111156107bd57600080fd5b803590602001918460018302840111640100000000831117156107df57600080fd5b91908080601f016020809104026020016040519081016040528093929190818152602001838380828437600081840152601f19601f8201169050808301925050505050505091929192908035906020019064010000000081111561084257600080fd5b82018360208201111561085457600080fd5b8035906020019184600183028401116401000000008311171561087657600080fd5b91908080601f016020809104026020016040519081016040528093929190818152602001838380828437600081840152601f19601f8201169050808301925050505050505091929192908035906020019092919080359060200190929190803590602001906401000000008111156108ed57600080fd5b8201836020820111156108ff57600080fd5b8035906020019184600183028401116401000000008311171561092157600080fd5b91908080601f016020809104026020016040519081016040528093929190818152602001838380828437600081840152601f19601f820116905080830192505050505050509192919290505050611e9a565b005b34801561098157600080fd5b5061098a61214f565b604051808273ffffffffffffffffffffffffffffffffffffffff1673ffffffffffffffffffffffffffffffffffffffff16815260200191505060405180910390f35b6000809054906101000a900473ffffffffffffffffffffffffffffffffffffffff1673ffffffffffffffffffffffffffffffffffffffff163373ffffffffffffffffffffffffffffffffffffffff1614610a8e576040517f08c379a00000000000000000000000000000000000000000000000000000000081526004018080602001828103825260098152602001807f4e6f74204f776e6572000000000000000000000000000000000000000000000081525060200191505060405180910390fd5b8060056000848152602001908152602001600020600201819055507fd0fe497a1820f1c1661aa093363c54a95e242cdb83b90e023df0cd704dc26b9560056000848152602001908152602001600020600101826040518080602001838152602001828103825284818154600181600116156101000203166002900481526020019150805460018160011615610100020316600290048015610b705780601f10610b4557610100808354040283529160200191610b70565b820191906000526020600020905b815481529060010190602001808311610b5357829003601f168201915b5050935050505060405180910390a15050565b6005602052806000526040600020600091509050806000018054600181600116156101000203166002900480601f016020809104026020016040519081016040528092919081815260200182805460018160011615610100020316600290048015610c2f5780601f10610c0457610100808354040283529160200191610c2f565b820191906000526020600020905b815481529060010190602001808311610c1257829003601f168201915b505050505090806001018054600181600116156101000203166002900480601f016020809104026020016040519081016040528092919081815260200182805460018160011615610100020316600290048015610ccd5780601f10610ca257610100808354040283529160200191610ccd565b820191906000526020600020905b815481529060010190602001808311610cb057829003601f168201915b505050505090806002015490806003015490806004018054600181600116156101000203166002900480601f016020809104026020016040519081016040528092919081815260200182805460018160011615610100020316600290048015610d775780601f10610d4c57610100808354040283529160200191610d77565b820191906000526020600020905b815481529060010190602001808311610d5a57829003601f168201915b5050505050905085565b60025481565b6000809054906101000a900473ffffffffffffffffffffffffffffffffffffffff1673ffffffffffffffffffffffffffffffffffffffff163373ffffffffffffffffffffffffffffffffffffffff1614610e49576040517f08c379a00000000000000000000000000000000000000000000000000000000081526004018080602001828103825260098152602001807f4e6f74204f776e6572000000000000000000000000000000000000000000000081525060200191505060405180910390fd5b6000600660008381526020019081526020016000206005018190555050565b6000809054906101000a900473ffffffffffffffffffffffffffffffffffffffff1673ffffffffffffffffffffffffffffffffffffffff163373ffffffffffffffffffffffffffffffffffffffff1614610f2a576040517f08c379a00000000000000000000000000000000000000000000000000000000081526004018080602001828103825260098152602001807f4e6f74204f776e6572000000000000000000000000000000000000000000000081525060200191505060405180910390fd5b600060025410158015610f3e575060025481105b610fb0576040517f08c379a00000000000000000000000000000000000000000000000000000000081526004018080602001828103825260068152602001807f6572726f7221000000000000000000000000000000000000000000000000000081525060200191505060405180910390fd5b7f220b4ea85890e0b513d264c8a75e4bc224e1a7f7d17985116526abaabb30ccbe6005600083815260200190815260200160002060010160405180806020018281038252838181546001816001161561010002031660029004815260200191508054600181600116156101000203166002900480156110705780601f1061104557610100808354040283529160200191611070565b820191906000526020600020905b81548152906001019060200180831161105357829003601f168201915b50509250505060405180910390a160056000600160025403815260200190815260200160002060056000838152602001908152602001600020600082018160000190805460018160011615610100020316600290046110d09291906122c3565b50600182018160010190805460018160011615610100020316600290046110f89291906122c3565b506002820154816002015560038201548160030155600482018160040190805460018160011615610100020316600290046111349291906122c3565b5090505060056000600160025403815260200190815260200160002060008082016000611161919061234a565b600182016000611171919061234a565b60028201600090556003820160009055600482016000611191919061234a565b50506002600081548092919060019003919050555050565b6000809054906101000a900473ffffffffffffffffffffffffffffffffffffffff1681565b6000809054906101000a900473ffffffffffffffffffffffffffffffffffffffff1673ffffffffffffffffffffffffffffffffffffffff163373ffffffffffffffffffffffffffffffffffffffff1614611290576040517f08c379a00000000000000000000000000000000000000000000000000000000081526004018080602001828103825260098152602001807f4e6f74204f776e6572000000000000000000000000000000000000000000000081525060200191505060405180910390fd5b806005600084815260200190815260200160002060000190805190602001906112ba929190612392565b505050565b600160009054906101000a900473ffffffffffffffffffffffffffffffffffffffff1673ffffffffffffffffffffffffffffffffffffffff163373ffffffffffffffffffffffffffffffffffffffff1614611382576040517f08c379a00000000000000000000000000000000000000000000000000000000081526004018080602001828103825260098152602001807f4e6f742041646d696e000000000000000000000000000000000000000000000081525060200191505060405180910390fd5b806004819055507f3986883ccd8f4c542065fc3ab2730f79c048d759f3174e854e928474e2c6a803816040518082815260200191505060405180910390a150565b60045481565b6000809054906101000a900473ffffffffffffffffffffffffffffffffffffffff1673ffffffffffffffffffffffffffffffffffffffff163373ffffffffffffffffffffffffffffffffffffffff161461148b576040517f08c379a00000000000000000000000000000000000000000000000000000000081526004018080602001828103825260098152602001807f4e6f74204f776e6572000000000000000000000000000000000000000000000081525060200191505060405180910390fd5b60006002541015801561149f575060025481105b611511576040517f08c379a00000000000000000000000000000000000000000000000000000000081526004018080602001828103825260068152602001807f6572726f7221000000000000000000000000000000000000000000000000000081525060200191505060405180910390fd5b600060056000838152602001908152602001600020600301541415611551576001600560008381526020019081526020016000206003018190555061156e565b600060056000838152602001908152602001600020600301819055505b7fa26f77fb59f60eeb8dd8d03b69e05d078c258b73e15cc9406870a6dce38cdccf600560008381526020019081526020016000206001016005600084815260200190815260200160002060030154604051808060200183815260200182810382528481815460018160011615610100020316600290048152602001915080546001816001161561010002031660029004801561164b5780601f106116205761010080835404028352916020019161164b565b820191906000526020600020905b81548152906001019060200180831161162e57829003601f168201915b5050935050505060405180910390a150565b6000809054906101000a900473ffffffffffffffffffffffffffffffffffffffff1673ffffffffffffffffffffffffffffffffffffffff163373ffffffffffffffffffffffffffffffffffffffff1614156116b757600080fd5b600254841080156116c9575060008410155b61173b576040517f08c379a00000000000000000000000000000000000000000000000000000000081526004018080602001828103825260068152602001807f6572726f7221000000000000000000000000000000000000000000000000000081525060200191505060405180910390fd5b600083600560008781526020019081526020016000206002015402905061181433600560008881526020019081526020016000206001018054600181600116156101000203166002900480601f0160208091040260200160405190810160405280929190818152602001828054600181600116156101000203166002900480156118065780601f106117db57610100808354040283529160200191611806565b820191906000526020600020905b8154815290600101906020018083116117e957829003601f168201915b505050505086868686612175565b6000809054906101000a900473ffffffffffffffffffffffffffffffffffffffff1673ffffffffffffffffffffffffffffffffffffffff166108fc606460045484028161185d57fe5b0483039081150290604051600060405180830381858888f1935050505015801561188b573d6000803e3d6000fd5b50600160009054906101000a900473ffffffffffffffffffffffffffffffffffffffff1673ffffffffffffffffffffffffffffffffffffffff166108fc60646004546064038402816118d957fe5b0483039081150290604051600060405180830381858888f19350505050158015611907573d6000803e3d6000fd5b507f75a5a059addc5274fc09437c8cb422eb9d794c16dc80669b518879c49e24679a60016003540360056000888152602001908152602001600020600101858560405180858152602001806020018481526020018381526020018281038252858181546001816001161561010002031660029004815260200191508054600181600116156101000203166002900480156119e25780601f106119b7576101008083540402835291602001916119e2565b820191906000526020600020905b8154815290600101906020018083116119c557829003601f168201915b50509550505050505060405180910390a15050505050565b600160009054906101000a900473ffffffffffffffffffffffffffffffffffffffff1673ffffffffffffffffffffffffffffffffffffffff163373ffffffffffffffffffffffffffffffffffffffff1614611abd576040517f08c379a00000000000000000000000000000000000000000000000000000000081526004018080602001828103825260098152602001807f4e6f742041646d696e000000000000000000000000000000000000000000000081525060200191505060405180910390fd5b7f9f26b89e205fa0f8fb4f5d63152d6e4846ab604e113376ce4d7abca0d92406a46000809054906101000a900473ffffffffffffffffffffffffffffffffffffffff1682604051808373ffffffffffffffffffffffffffffffffffffffff1673ffffffffffffffffffffffffffffffffffffffff1681526020018273ffffffffffffffffffffffffffffffffffffffff1673ffffffffffffffffffffffffffffffffffffffff1681526020019250505060405180910390a1806000806101000a81548173ffffffffffffffffffffffffffffffffffffffff021916908373ffffffffffffffffffffffffffffffffffffffff16021790555050565b60066020528060005260406000206000915090508060000160009054906101000a900473ffffffffffffffffffffffffffffffffffffffff1690806001018054600181600116156101000203166002900480601f016020809104026020016040519081016040528092919081815260200182805460018160011615610100020316600290048015611c8a5780601f10611c5f57610100808354040283529160200191611c8a565b820191906000526020600020905b815481529060010190602001808311611c6d57829003601f168201915b5050505050908060020154908060030154908060040154908060050154908060060154908060070154905088565b60035481565b6000809054906101000a900473ffffffffffffffffffffffffffffffffffffffff1673ffffffffffffffffffffffffffffffffffffffff163373ffffffffffffffffffffffffffffffffffffffff161415611d1857600080fd5b3373ffffffffffffffffffffffffffffffffffffffff166006600084815260200190815260200160002060000160009054906101000a900473ffffffffffffffffffffffffffffffffffffffff1673ffffffffffffffffffffffffffffffffffffffff1614611def576040517f08c379a000000000000000000000000000000000000000000000000000000000815260040180806020018281038252600b8152602001807f43616e277420726174652100000000000000000000000000000000000000000081525060200191505060405180910390fd5b6000600660008481526020019081526020016000206005015414611e7b576040517f08c379a00000000000000000000000000000000000000000000000000000000081526004018080602001828103825260188152602001807f4f72646572206e6f74207965742064656c69766572656421000000000000000081525060200191505060405180910390fd5b8060066000848152602001908152602001600020600601819055505050565b6000809054906101000a900473ffffffffffffffffffffffffffffffffffffffff1673ffffffffffffffffffffffffffffffffffffffff163373ffffffffffffffffffffffffffffffffffffffff1614611f5c576040517f08c379a00000000000000000000000000000000000000000000000000000000081526004018080602001828103825260098152602001807f4e6f74204f776e6572000000000000000000000000000000000000000000000081525060200191505060405180910390fd5b846005600060025481526020019081526020016000206000019080519060200190611f88929190612392565b50836005600060025481526020019081526020016000206001019080519060200190611fb5929190612392565b508260056000600254815260200190815260200160002060020181905550816005600060025481526020019081526020016000206003018190555080600560006002548152602001908152602001600020600401908051906020019061201c929190612392565b507fed95a21857b748e5c4780f9284329e5d6a1e49ae68126ee8a9d755a6c4d5f3f684848484604051808060200185815260200184815260200180602001838103835287818151815260200191508051906020019080838360005b83811015612092578082015181840152602081019050612077565b50505050905090810190601f1680156120bf5780820380516001836020036101000a031916815260200191505b50838103825284818151815260200191508051906020019080838360005b838110156120f85780820151818401526020810190506120dd565b50505050905090810190601f1680156121255780820380516001836020036101000a031916815260200191505b50965050505050505060405180910390a16002600081548092919060010191905055505050505050565b600160009054906101000a900473ffffffffffffffffffffffffffffffffffffffff1681565b8560066000600354815260200190815260200160002060000160006101000a81548173ffffffffffffffffffffffffffffffffffffffff021916908373ffffffffffffffffffffffffffffffffffffffff1602179055508460066000600354815260200190815260200160002060010190805190602001906121f8929190612392565b508360066000600354815260200190815260200160002060020181905550826006600060035481526020019081526020016000206003018190555081600660006003548152602001908152602001600020600401819055506001600660006003548152602001908152602001600020600501819055506000600660006003548152602001908152602001600020600601819055508060066000600354815260200190815260200160002060070181905550600360008154809291906001019190505550505050505050565b828054600181600116156101000203166002900490600052602060002090601f016020900481019282601f106122fc5780548555612339565b8280016001018555821561233957600052602060002091601f016020900482015b8281111561233857825482559160010191906001019061231d565b5b5090506123469190612412565b5090565b50805460018160011615610100020316600290046000825580601f10612370575061238f565b601f01602090049060005260206000209081019061238e9190612412565b5b50565b828054600181600116156101000203166002900490600052602060002090601f016020900481019282601f106123d357805160ff1916838001178555612401565b82800160010185558215612401579182015b828111156124005782518255916020019190600101906123e5565b5b50905061240e9190612412565b5090565b61243491905b80821115612430576000816000905550600101612418565b5090565b9056fea265627a7a72315820de21c132b09fd76aa9fd00dadfdbb84df65aa3919a2ae80acc63d42d43b60aea64736f6c63430005100032",
  "source": "pragma solidity ^0.5.16;\n\n/*\nNotes:\n1. If a food is available its value is 0, else 1\n*/\n\ncontract FoodOrder {\n  address payable public canteenOwner;\n  address payable public admin;  //college authority\n  \n  uint public numberOfFoods;  //Tracks the number of food items offered by the canteen\n  uint public orderNumber;   //Tracks the order number\n  uint public collegeFees = 5;   //Tracks the college commission on each order, defaults to 5%\n\n//Sets the owner and admin. Initially both are same. Later admin changes canteenOwner.\n  constructor () public{\n    canteenOwner = address(msg.sender);\n    admin = address(msg.sender);\n  }\n\n  struct FoodItem {\n    string image;\n    string name;\n    uint price;\n    uint available;\n    string category;\n  }\n\n//number of orders\n  struct OrderItem{\n      address customer;\n      string name;\n      uint quantity;\n      uint hostelOrCanteen;\n      uint number;\n      uint delivered;\n      uint rating;\n      uint totalPrice;\n  }\n\n  mapping(uint => FoodItem) public foods;\n  mapping(uint => OrderItem) public orders;\n\n//all events\n  event ordered(uint orderNumber, string name, uint hostelOrTable, uint number);\n  event deletedItem(string _name);\n  event priceChanged(string name, uint _price);\n  event availabilityChanged(string name, uint _available);\n  event addedFood(string _name, uint _price, uint _available, string _category);\n  event changedCollegeFees(uint _collegeFees);\n  event changedCanteenOwner(address payable canteenOwner, address payable _canteenOwner);\n  \n//checks if owner\n  modifier onlyOwner {\n    require(address(msg.sender) == canteenOwner, \"Not Owner\");\n    _;\n  }\n//checks if admin\n  modifier onlyAdmin {\n    require(address(msg.sender) == admin, \"Not Admin\");\n    _;\n  }\n//checks if customer\n  modifier onlyCustomer {\n      require(address(msg.sender) != canteenOwner);\n      _;\n  }\n  \n//customer related\n  function order(uint index, uint quantity, uint hostelOrCanteen, uint number) external payable onlyCustomer {\n    require(index < numberOfFoods && index >= 0, \"error!\");\n    uint price = foods[index].price * quantity;\n    onOrder(msg.sender, foods[index].name, quantity, hostelOrCanteen, number, price);\n    canteenOwner.transfer(price - price*collegeFees/100);\n    admin.transfer(price - price*(100-collegeFees)/100);\n    emit ordered(orderNumber-1, foods[index].name, hostelOrCanteen, number);\n  }\n  \n  function onOrder(address _customer, string memory _name, uint _quantity, uint _hostelOrCanteen, uint _number, uint _totalPrice) internal {\n    orders[orderNumber].customer = _customer;\n    orders[orderNumber].name = _name;\n    orders[orderNumber].quantity = _quantity;\n    orders[orderNumber].hostelOrCanteen = _hostelOrCanteen;\n    orders[orderNumber].number = _number;\n    orders[orderNumber].delivered = 1;\n    orders[orderNumber].rating = 0;\n    orders[orderNumber].totalPrice = _totalPrice;\n    orderNumber++;\n  }\n  \n  //if value is 0, customer hasn't rated\n  function onOrderDelivered(uint index, uint _rating) public onlyCustomer{\n    require(orders[index].customer == msg.sender, \"Can't rate!\");\n    require(orders[index].delivered == 0, \"Order not yet delivered!\");\n    orders[index].rating = _rating;\n  }\n\n//canteen management related\n  //if value is 1, then order hasn't been delivered\n  function orderDeliver(uint index) public onlyOwner {\n    orders[index].delivered = 0;\n  }\n\n  function addFood(string memory _image, string memory _name, uint _price, uint _available, string memory _category) public onlyOwner {\n    foods[numberOfFoods].image = _image;\n    foods[numberOfFoods].name = _name;\n    foods[numberOfFoods].price = _price;\n    foods[numberOfFoods].available = _available;\n    foods[numberOfFoods].category = _category;\n    emit addedFood(_name, _price, _available, _category);\n    numberOfFoods++;\n  }\n  \n  function imageChange(uint index, string memory _newImage) public onlyOwner{\n      foods[index].image = _newImage;\n  }\n  \n  function availabilityChange(uint index) public onlyOwner {\n    require(numberOfFoods >= 0 && index < numberOfFoods, \"error!\");\n    if(foods[index].available == 0){\n      foods[index].available = 1;\n    }\n    else{\n      foods[index].available = 0;\n    }\n    emit availabilityChanged (foods[index].name, foods[index].available);\n  }\n\n  function priceChange(uint index, uint _price) public onlyOwner {\n    foods[index].price = _price;\n    emit priceChanged (foods[index].name, _price);\n  }\n\n  function deleteItem(uint index) public onlyOwner {\n     require(numberOfFoods >= 0 && index < numberOfFoods, \"error!\");\n     emit deletedItem(foods[index].name);\n     foods[index] = foods[numberOfFoods-1];\n     delete foods[numberOfFoods-1];\n     numberOfFoods--;\n  }\n  \n//ownership can be changed only by college authorities\n  function changeOwner(address payable _canteenOwner) public onlyAdmin {\n      emit changedCanteenOwner(canteenOwner, _canteenOwner);\n      canteenOwner = _canteenOwner;\n  }\n\n//college commission can be changed only by authorities\n  function changeFees(uint _collegeFees) public onlyAdmin {\n    collegeFees = _collegeFees;\n    emit changedCollegeFees(_collegeFees);\n  }\n}\n",
  "sourcePath": "D:\\Final Yr Project\\ENergy Dapp\\src\\contracts\\FoodOrder.sol",
  "compiler": {
    "name": "solc",
    "version": "0.5.16+commit.9c3226ce.Emscripten.clang"
  },
  "schemaVersion": "3.4.7",
  "updatedAt": "2022-05-20T09:05:06.635Z",
  "devdoc": {
    "methods": {}
  },
  "userdoc": {
    "methods": {}
  }
}