{
  "contractName": "IDProof",
  "abi": [
    {
      "inputs": [],
      "payable": false,
      "stateMutability": "nonpayable",
      "type": "constructor"
    },
    {
      "anonymous": false,
      "inputs": [
        {
          "indexed": false,
          "internalType": "uint256",
          "name": "book_Id",
          "type": "uint256"
        },
        {
          "indexed": false,
          "internalType": "string",
          "name": "book_Hash",
          "type": "string"
        },
        {
          "indexed": false,
          "internalType": "uint256",
          "name": "book_Size",
          "type": "uint256"
        },
        {
          "indexed": false,
          "internalType": "string",
          "name": "book_Name",
          "type": "string"
        },
        {
          "indexed": false,
          "internalType": "string",
          "name": "book_Description",
          "type": "string"
        },
        {
          "indexed": false,
          "internalType": "string",
          "name": "author",
          "type": "string"
        },
        {
          "indexed": false,
          "internalType": "uint256",
          "name": "isbn",
          "type": "uint256"
        },
        {
          "indexed": false,
          "internalType": "uint256",
          "name": "uploadTime",
          "type": "uint256"
        },
        {
          "indexed": false,
          "internalType": "address",
          "name": "uploader",
          "type": "address"
        }
      ],
      "name": "BookUploaded",
      "type": "event"
    },
    {
      "anonymous": false,
      "inputs": [
        {
          "indexed": false,
          "internalType": "uint256",
          "name": "proof_Id",
          "type": "uint256"
        },
        {
          "indexed": false,
          "internalType": "string",
          "name": "proofId_Hash",
          "type": "string"
        },
        {
          "indexed": false,
          "internalType": "uint256",
          "name": "proofId_Size",
          "type": "uint256"
        },
        {
          "indexed": false,
          "internalType": "string",
          "name": "username",
          "type": "string"
        },
        {
          "indexed": false,
          "internalType": "string",
          "name": "houseaddress",
          "type": "string"
        },
        {
          "indexed": false,
          "internalType": "string",
          "name": "phonenumber",
          "type": "string"
        },
        {
          "indexed": false,
          "internalType": "string",
          "name": "emailid",
          "type": "string"
        },
        {
          "indexed": false,
          "internalType": "uint256",
          "name": "uploadTime",
          "type": "uint256"
        },
        {
          "indexed": false,
          "internalType": "address",
          "name": "uploader",
          "type": "address"
        }
      ],
      "name": "NoteUploaded",
      "type": "event"
    },
    {
      "constant": true,
      "inputs": [],
      "name": "BookCount",
      "outputs": [
        {
          "internalType": "uint256",
          "name": "",
          "type": "uint256"
        }
      ],
      "payable": false,
      "stateMutability": "view",
      "type": "function"
    },
    {
      "constant": true,
      "inputs": [],
      "name": "IDProofCount",
      "outputs": [
        {
          "internalType": "uint256",
          "name": "",
          "type": "uint256"
        }
      ],
      "payable": false,
      "stateMutability": "view",
      "type": "function"
    },
    {
      "constant": true,
      "inputs": [],
      "name": "admin",
      "outputs": [
        {
          "internalType": "address",
          "name": "",
          "type": "address"
        }
      ],
      "payable": false,
      "stateMutability": "view",
      "type": "function"
    },
    {
      "constant": true,
      "inputs": [
        {
          "internalType": "uint256",
          "name": "",
          "type": "uint256"
        }
      ],
      "name": "books",
      "outputs": [
        {
          "internalType": "uint256",
          "name": "book_Id",
          "type": "uint256"
        },
        {
          "internalType": "string",
          "name": "book_Hash",
          "type": "string"
        },
        {
          "internalType": "uint256",
          "name": "book_Size",
          "type": "uint256"
        },
        {
          "internalType": "string",
          "name": "book_Name",
          "type": "string"
        },
        {
          "internalType": "string",
          "name": "book_Description",
          "type": "string"
        },
        {
          "internalType": "string",
          "name": "author",
          "type": "string"
        },
        {
          "internalType": "uint256",
          "name": "isbn",
          "type": "uint256"
        },
        {
          "internalType": "uint256",
          "name": "uploadTime",
          "type": "uint256"
        },
        {
          "internalType": "address",
          "name": "uploader",
          "type": "address"
        }
      ],
      "payable": false,
      "stateMutability": "view",
      "type": "function"
    },
    {
      "constant": true,
      "inputs": [
        {
          "internalType": "address",
          "name": "",
          "type": "address"
        },
        {
          "internalType": "uint256",
          "name": "",
          "type": "uint256"
        }
      ],
      "name": "reporters",
      "outputs": [
        {
          "internalType": "bool",
          "name": "reported",
          "type": "bool"
        }
      ],
      "payable": false,
      "stateMutability": "view",
      "type": "function"
    },
    {
      "constant": true,
      "inputs": [],
      "name": "user",
      "outputs": [
        {
          "internalType": "address",
          "name": "",
          "type": "address"
        }
      ],
      "payable": false,
      "stateMutability": "view",
      "type": "function"
    },
    {
      "constant": true,
      "inputs": [
        {
          "internalType": "uint256",
          "name": "",
          "type": "uint256"
        }
      ],
      "name": "userproof",
      "outputs": [
        {
          "internalType": "uint256",
          "name": "proof_Id",
          "type": "uint256"
        },
        {
          "internalType": "string",
          "name": "proofId_Hash",
          "type": "string"
        },
        {
          "internalType": "uint256",
          "name": "proofId_Size",
          "type": "uint256"
        },
        {
          "internalType": "string",
          "name": "username",
          "type": "string"
        },
        {
          "internalType": "string",
          "name": "houseaddress",
          "type": "string"
        },
        {
          "internalType": "string",
          "name": "phonenumber",
          "type": "string"
        },
        {
          "internalType": "string",
          "name": "emailid",
          "type": "string"
        },
        {
          "internalType": "uint256",
          "name": "uploadTime",
          "type": "uint256"
        },
        {
          "internalType": "address",
          "name": "uploader",
          "type": "address"
        },
        {
          "internalType": "uint256",
          "name": "reports",
          "type": "uint256"
        }
      ],
      "payable": false,
      "stateMutability": "view",
      "type": "function"
    },
    {
      "constant": false,
      "inputs": [
        {
          "internalType": "address",
          "name": "_librarian",
          "type": "address"
        }
      ],
      "name": "changelibrarian",
      "outputs": [],
      "payable": false,
      "stateMutability": "nonpayable",
      "type": "function"
    },
    {
      "constant": false,
      "inputs": [
        {
          "internalType": "uint256",
          "name": "index",
          "type": "uint256"
        }
      ],
      "name": "deletebook",
      "outputs": [],
      "payable": false,
      "stateMutability": "nonpayable",
      "type": "function"
    },
    {
      "constant": false,
      "inputs": [
        {
          "internalType": "string",
          "name": "_book_Hash",
          "type": "string"
        },
        {
          "internalType": "uint256",
          "name": "_book_Size",
          "type": "uint256"
        },
        {
          "internalType": "string",
          "name": "_book_Name",
          "type": "string"
        },
        {
          "internalType": "string",
          "name": "_book_Description",
          "type": "string"
        },
        {
          "internalType": "string",
          "name": "_author",
          "type": "string"
        },
        {
          "internalType": "uint256",
          "name": "_isbn",
          "type": "uint256"
        }
      ],
      "name": "uploadBook",
      "outputs": [],
      "payable": false,
      "stateMutability": "nonpayable",
      "type": "function"
    },
    {
      "constant": false,
      "inputs": [
        {
          "internalType": "string",
          "name": "_proofId_Hash",
          "type": "string"
        },
        {
          "internalType": "uint256",
          "name": "_proofId_Size",
          "type": "uint256"
        },
        {
          "internalType": "string",
          "name": "username",
          "type": "string"
        },
        {
          "internalType": "string",
          "name": "houseaddress",
          "type": "string"
        },
        {
          "internalType": "string",
          "name": "phonenumber",
          "type": "string"
        },
        {
          "internalType": "string",
          "name": "email",
          "type": "string"
        }
      ],
      "name": "uploadNote",
      "outputs": [],
      "payable": false,
      "stateMutability": "nonpayable",
      "type": "function"
    },
    {
      "constant": false,
      "inputs": [
        {
          "internalType": "uint256",
          "name": "index",
          "type": "uint256"
        }
      ],
      "name": "deletenote",
      "outputs": [],
      "payable": false,
      "stateMutability": "nonpayable",
      "type": "function"
    }
  ],
  "bytecode": "0x60806040526000600255600060035534801561001a57600080fd5b50336000806101000a81548173ffffffffffffffffffffffffffffffffffffffff021916908373ffffffffffffffffffffffffffffffffffffffff16021790555033600160006101000a81548173ffffffffffffffffffffffffffffffffffffffff021916908373ffffffffffffffffffffffffffffffffffffffff160217905550613424806100ab6000396000f3fe608060405234801561001057600080fd5b50600436106100b45760003560e01c806368744046116100715780636874404614610227578063815e63ef146104615780638bc3442314610707578063c278a0fc14610725578063e9cc89f4146109b9578063f851a44014610cda576100b4565b80630709d39c146100b95780630bdad603146100fd57806329c37f911461012b57806336e0862d146101495780634f8632ba146101af57806363b64a6b146101f9575b600080fd5b6100fb600480360360208110156100cf57600080fd5b81019080803573ffffffffffffffffffffffffffffffffffffffff169060200190929190505050610d24565b005b6101296004803603602081101561011357600080fd5b8101908080359060200190929190505050610e64565b005b610133611947565b6040518082815260200191505060405180910390f35b6101956004803603604081101561015f57600080fd5b81019080803573ffffffffffffffffffffffffffffffffffffffff1690602001909291908035906020019092919050505061194d565b604051808215151515815260200191505060405180910390f35b6101b7611985565b604051808273ffffffffffffffffffffffffffffffffffffffff1673ffffffffffffffffffffffffffffffffffffffff16815260200191505060405180910390f35b6102256004803603602081101561020f57600080fd5b81019080803590602001909291905050506119ab565b005b6102536004803603602081101561023d57600080fd5b810190808035906020019092919050505061231a565b604051808a8152602001806020018981526020018060200180602001806020018881526020018781526020018673ffffffffffffffffffffffffffffffffffffffff1673ffffffffffffffffffffffffffffffffffffffff16815260200185810385528d818151815260200191508051906020019080838360005b838110156102e95780820151818401526020810190506102ce565b50505050905090810190601f1680156103165780820380516001836020036101000a031916815260200191505b5085810384528b818151815260200191508051906020019080838360005b8381101561034f578082015181840152602081019050610334565b50505050905090810190601f16801561037c5780820380516001836020036101000a031916815260200191505b5085810383528a818151815260200191508051906020019080838360005b838110156103b557808201518184015260208101905061039a565b50505050905090810190601f1680156103e25780820380516001836020036101000a031916815260200191505b50858103825289818151815260200191508051906020019080838360005b8381101561041b578082015181840152602081019050610400565b50505050905090810190601f1680156104485780820380516001836020036101000a031916815260200191505b509d505050505050505050505050505060405180910390f35b61048d6004803603602081101561047757600080fd5b81019080803590602001909291905050506125e8565b604051808b8152602001806020018a8152602001806020018060200180602001806020018981526020018873ffffffffffffffffffffffffffffffffffffffff1673ffffffffffffffffffffffffffffffffffffffff16815260200187815260200186810386528f818151815260200191508051906020019080838360005b8381101561052757808201518184015260208101905061050c565b50505050905090810190601f1680156105545780820380516001836020036101000a031916815260200191505b5086810385528d818151815260200191508051906020019080838360005b8381101561058d578082015181840152602081019050610572565b50505050905090810190601f1680156105ba5780820380516001836020036101000a031916815260200191505b5086810384528c818151815260200191508051906020019080838360005b838110156105f35780820151818401526020810190506105d8565b50505050905090810190601f1680156106205780820380516001836020036101000a031916815260200191505b5086810383528b818151815260200191508051906020019080838360005b8381101561065957808201518184015260208101905061063e565b50505050905090810190601f1680156106865780820380516001836020036101000a031916815260200191505b5086810382528a818151815260200191508051906020019080838360005b838110156106bf5780820151818401526020810190506106a4565b50505050905090810190601f1680156106ec5780820380516001836020036101000a031916815260200191505b509f5050505050505050505050505050505060405180910390f35b61070f612954565b6040518082815260200191505060405180910390f35b6109b7600480360360c081101561073b57600080fd5b810190808035906020019064010000000081111561075857600080fd5b82018360208201111561076a57600080fd5b8035906020019184600183028401116401000000008311171561078c57600080fd5b91908080601f016020809104026020016040519081016040528093929190818152602001838380828437600081840152601f19601f82011690508083019250505050505050919291929080359060200190929190803590602001906401000000008111156107f957600080fd5b82018360208201111561080b57600080fd5b8035906020019184600183028401116401000000008311171561082d57600080fd5b91908080601f016020809104026020016040519081016040528093929190818152602001838380828437600081840152601f19601f8201169050808301925050505050505091929192908035906020019064010000000081111561089057600080fd5b8201836020820111156108a257600080fd5b803590602001918460018302840111640100000000831117156108c457600080fd5b91908080601f016020809104026020016040519081016040528093929190818152602001838380828437600081840152601f19601f8201169050808301925050505050505091929192908035906020019064010000000081111561092757600080fd5b82018360208201111561093957600080fd5b8035906020019184600183028401116401000000008311171561095b57600080fd5b91908080601f016020809104026020016040519081016040528093929190818152602001838380828437600081840152601f19601f8201169050808301925050505050505091929192908035906020019092919050505061295a565b005b610cd8600480360360c08110156109cf57600080fd5b81019080803590602001906401000000008111156109ec57600080fd5b8201836020820111156109fe57600080fd5b80359060200191846001830284011164010000000083111715610a2057600080fd5b91908080601f016020809104026020016040519081016040528093929190818152602001838380828437600081840152601f19601f8201169050808301925050505050505091929192908035906020019092919080359060200190640100000000811115610a8d57600080fd5b820183602082011115610a9f57600080fd5b80359060200191846001830284011164010000000083111715610ac157600080fd5b91908080601f016020809104026020016040519081016040528093929190818152602001838380828437600081840152601f19601f82011690508083019250505050505050919291929080359060200190640100000000811115610b2457600080fd5b820183602082011115610b3657600080fd5b80359060200191846001830284011164010000000083111715610b5857600080fd5b91908080601f016020809104026020016040519081016040528093929190818152602001838380828437600081840152601f19601f82011690508083019250505050505050919291929080359060200190640100000000811115610bbb57600080fd5b820183602082011115610bcd57600080fd5b80359060200191846001830284011164010000000083111715610bef57600080fd5b91908080601f016020809104026020016040519081016040528093929190818152602001838380828437600081840152601f19601f82011690508083019250505050505050919291929080359060200190640100000000811115610c5257600080fd5b820183602082011115610c6457600080fd5b80359060200191846001830284011164010000000083111715610c8657600080fd5b91908080601f016020809104026020016040519081016040528093929190818152602001838380828437600081840152601f19601f820116905080830192505050505050509192919290505050612e50565b005b610ce2613300565b604051808273ffffffffffffffffffffffffffffffffffffffff1673ffffffffffffffffffffffffffffffffffffffff16815260200191505060405180910390f35b6000809054906101000a900473ffffffffffffffffffffffffffffffffffffffff1673ffffffffffffffffffffffffffffffffffffffff163373ffffffffffffffffffffffffffffffffffffffff1614610de6576040517f08c379a000000000000000000000000000000000000000000000000000000000815260040180806020018281038252601a8152602001807f4f6e6c792041646d696e2063616e20616363657373207468697300000000000081525060200191505060405180910390fd5b600073ffffffffffffffffffffffffffffffffffffffff163373ffffffffffffffffffffffffffffffffffffffff161415610e2057600080fd5b80600160006101000a81548173ffffffffffffffffffffffffffffffffffffffff021916908373ffffffffffffffffffffffffffffffffffffffff16021790555050565b806005600082815260200190815260200160002060080160009054906101000a900473ffffffffffffffffffffffffffffffffffffffff1673ffffffffffffffffffffffffffffffffffffffff163373ffffffffffffffffffffffffffffffffffffffff161480610f225750600160009054906101000a900473ffffffffffffffffffffffffffffffffffffffff1673ffffffffffffffffffffffffffffffffffffffff163373ffffffffffffffffffffffffffffffffffffffff16145b610f77576040517f08c379a00000000000000000000000000000000000000000000000000000000081526004018080602001828103825260258152602001806133cb6025913960400191505060405180910390fd5b600073ffffffffffffffffffffffffffffffffffffffff163373ffffffffffffffffffffffffffffffffffffffff161415610fb157600080fd5b6000600354118015610fc557506003548211155b611037576040517f08c379a00000000000000000000000000000000000000000000000000000000081526004018080602001828103825260118152602001807f556e61626c6520746f2044656c6574652100000000000000000000000000000081525060200191505060405180910390fd5b600354821461176b576040518061014001604052808381526020016005600060035481526020019081526020016000206001018054600181600116156101000203166002900480601f0160208091040260200160405190810160405280929190818152602001828054600181600116156101000203166002900480156110fe5780601f106110d3576101008083540402835291602001916110fe565b820191906000526020600020905b8154815290600101906020018083116110e157829003601f168201915b505050505081526020016005600060035481526020019081526020016000206002015481526020016005600060035481526020019081526020016000206003018054600181600116156101000203166002900480601f0160208091040260200160405190810160405280929190818152602001828054600181600116156101000203166002900480156111d25780601f106111a7576101008083540402835291602001916111d2565b820191906000526020600020905b8154815290600101906020018083116111b557829003601f168201915b505050505081526020016005600060035481526020019081526020016000206004018054600181600116156101000203166002900480601f0160208091040260200160405190810160405280929190818152602001828054600181600116156101000203166002900480156112885780601f1061125d57610100808354040283529160200191611288565b820191906000526020600020905b81548152906001019060200180831161126b57829003601f168201915b505050505081526020016005600060035481526020019081526020016000206005018054600181600116156101000203166002900480601f01602080910402602001604051908101604052809291908181526020018280546001816001161561010002031660029004801561133e5780601f106113135761010080835404028352916020019161133e565b820191906000526020600020905b81548152906001019060200180831161132157829003601f168201915b505050505081526020016005600060035481526020019081526020016000206006018054600181600116156101000203166002900480601f0160208091040260200160405190810160405280929190818152602001828054600181600116156101000203166002900480156113f45780601f106113c9576101008083540402835291602001916113f4565b820191906000526020600020905b8154815290600101906020018083116113d757829003601f168201915b5050505050815260200160056000600354815260200190815260200160002060070154815260200160056000600354815260200190815260200160002060080160009054906101000a900473ffffffffffffffffffffffffffffffffffffffff1673ffffffffffffffffffffffffffffffffffffffff1681526020016000815250600560008481526020019081526020016000206000820151816000015560208201518160010190805190602001906114ae929190613325565b506040820151816002015560608201518160030190805190602001906114d5929190613325565b5060808201518160040190805190602001906114f2929190613325565b5060a082015181600501908051906020019061150f929190613325565b5060c082015181600601908051906020019061152c929190613325565b5060e082015181600701556101008201518160080160006101000a81548173ffffffffffffffffffffffffffffffffffffffff021916908373ffffffffffffffffffffffffffffffffffffffff1602179055506101208201518160090155905050604051806101400160405280600081526020016040518060200160405280600081525081526020016000815260200160405180602001604052806000815250815260200160405180602001604052806000815250815260200160405180602001604052806000815250815260200160405180602001604052806000815250815260200160008152602001600073ffffffffffffffffffffffffffffffffffffffff1681526020016000815250600560006003548152602001908152602001600020600082015181600001556020820151816001019080519060200190611674929190613325565b5060408201518160020155606082015181600301908051906020019061169b929190613325565b5060808201518160040190805190602001906116b8929190613325565b5060a08201518160050190805190602001906116d5929190613325565b5060c08201518160060190805190602001906116f2929190613325565b5060e082015181600701556101008201518160080160006101000a81548173ffffffffffffffffffffffffffffffffffffffff021916908373ffffffffffffffffffffffffffffffffffffffff160217905550610120820151816009015590505060036000815480929190600190039190505550611943565b604051806101400160405280600081526020016040518060200160405280600081525081526020016000815260200160405180602001604052806000815250815260200160405180602001604052806000815250815260200160405180602001604052806000815250815260200160405180602001604052806000815250815260200160008152602001600073ffffffffffffffffffffffffffffffffffffffff168152602001600081525060056000848152602001908152602001600020600082015181600001556020820151816001019080519060200190611850929190613325565b50604082015181600201556060820151816003019080519060200190611877929190613325565b506080820151816004019080519060200190611894929190613325565b5060a08201518160050190805190602001906118b1929190613325565b5060c08201518160060190805190602001906118ce929190613325565b5060e082015181600701556101008201518160080160006101000a81548173ffffffffffffffffffffffffffffffffffffffff021916908373ffffffffffffffffffffffffffffffffffffffff1602179055506101208201518160090155905050600360008154809291906001900391905055505b5050565b60025481565b6006602052816000526040600020602052806000526040600020600091509150508060000160009054906101000a900460ff16905081565b600160009054906101000a900473ffffffffffffffffffffffffffffffffffffffff1681565b600160009054906101000a900473ffffffffffffffffffffffffffffffffffffffff1673ffffffffffffffffffffffffffffffffffffffff163373ffffffffffffffffffffffffffffffffffffffff1614611a6e576040517f08c379a00000000000000000000000000000000000000000000000000000000081526004018080602001828103825260198152602001807f4f6e6c7920757365722063616e2061636365737320746869730000000000000081525060200191505060405180910390fd5b600073ffffffffffffffffffffffffffffffffffffffff163373ffffffffffffffffffffffffffffffffffffffff161415611aa857600080fd5b6000600254118015611abc57506002548111155b611b2e576040517f08c379a00000000000000000000000000000000000000000000000000000000081526004018080602001828103825260118152602001807f556e61626c6520746f2044656c6574652100000000000000000000000000000081525060200191505060405180910390fd5b6002548114612172576040518061012001604052808281526020016004600060025481526020019081526020016000206001018054600181600116156101000203166002900480601f016020809104026020016040519081016040528092919081815260200182805460018160011615610100020316600290048015611bf55780601f10611bca57610100808354040283529160200191611bf5565b820191906000526020600020905b815481529060010190602001808311611bd857829003601f168201915b505050505081526020016004600060025481526020019081526020016000206002015481526020016004600060025481526020019081526020016000206003018054600181600116156101000203166002900480601f016020809104026020016040519081016040528092919081815260200182805460018160011615610100020316600290048015611cc95780601f10611c9e57610100808354040283529160200191611cc9565b820191906000526020600020905b815481529060010190602001808311611cac57829003601f168201915b505050505081526020016004600060025481526020019081526020016000206004018054600181600116156101000203166002900480601f016020809104026020016040519081016040528092919081815260200182805460018160011615610100020316600290048015611d7f5780601f10611d5457610100808354040283529160200191611d7f565b820191906000526020600020905b815481529060010190602001808311611d6257829003601f168201915b505050505081526020016004600060025481526020019081526020016000206005018054600181600116156101000203166002900480601f016020809104026020016040519081016040528092919081815260200182805460018160011615610100020316600290048015611e355780601f10611e0a57610100808354040283529160200191611e35565b820191906000526020600020905b815481529060010190602001808311611e1857829003601f168201915b5050505050815260200160046000600254815260200190815260200160002060060154815260200160046000600254815260200190815260200160002060070154815260200160046000600254815260200190815260200160002060080160009054906101000a900473ffffffffffffffffffffffffffffffffffffffff1673ffffffffffffffffffffffffffffffffffffffff1681525060046000838152602001908152602001600020600082015181600001556020820151816001019080519060200190611f06929190613325565b50604082015181600201556060820151816003019080519060200190611f2d929190613325565b506080820151816004019080519060200190611f4a929190613325565b5060a0820151816005019080519060200190611f67929190613325565b5060c0820151816006015560e082015181600701556101008201518160080160006101000a81548173ffffffffffffffffffffffffffffffffffffffff021916908373ffffffffffffffffffffffffffffffffffffffff16021790555090505060405180610120016040528060008152602001604051806020016040528060008152508152602001600081526020016040518060200160405280600081525081526020016040518060200160405280600081525081526020016040518060200160405280600081525081526020016000815260200160008152602001600073ffffffffffffffffffffffffffffffffffffffff16815250600460006002548152602001908152602001600020600082015181600001556020820151816001019080519060200190612099929190613325565b506040820151816002015560608201518160030190805190602001906120c0929190613325565b5060808201518160040190805190602001906120dd929190613325565b5060a08201518160050190805190602001906120fa929190613325565b5060c0820151816006015560e082015181600701556101008201518160080160006101000a81548173ffffffffffffffffffffffffffffffffffffffff021916908373ffffffffffffffffffffffffffffffffffffffff16021790555090505060026000815480929190600190039190505550612317565b60405180610120016040528060008152602001604051806020016040528060008152508152602001600081526020016040518060200160405280600081525081526020016040518060200160405280600081525081526020016040518060200160405280600081525081526020016000815260200160008152602001600073ffffffffffffffffffffffffffffffffffffffff1681525060046000838152602001908152602001600020600082015181600001556020820151816001019080519060200190612242929190613325565b50604082015181600201556060820151816003019080519060200190612269929190613325565b506080820151816004019080519060200190612286929190613325565b5060a08201518160050190805190602001906122a3929190613325565b5060c0820151816006015560e082015181600701556101008201518160080160006101000a81548173ffffffffffffffffffffffffffffffffffffffff021916908373ffffffffffffffffffffffffffffffffffffffff160217905550905050600260008154809291906001900391905055505b50565b6004602052806000526040600020600091509050806000015490806001018054600181600116156101000203166002900480601f0160208091040260200160405190810160405280929190818152602001828054600181600116156101000203166002900480156123cc5780601f106123a1576101008083540402835291602001916123cc565b820191906000526020600020905b8154815290600101906020018083116123af57829003601f168201915b505050505090806002015490806003018054600181600116156101000203166002900480601f0160208091040260200160405190810160405280929190818152602001828054600181600116156101000203166002900480156124705780601f1061244557610100808354040283529160200191612470565b820191906000526020600020905b81548152906001019060200180831161245357829003601f168201915b505050505090806004018054600181600116156101000203166002900480601f01602080910402602001604051908101604052809291908181526020018280546001816001161561010002031660029004801561250e5780601f106124e35761010080835404028352916020019161250e565b820191906000526020600020905b8154815290600101906020018083116124f157829003601f168201915b505050505090806005018054600181600116156101000203166002900480601f0160208091040260200160405190810160405280929190818152602001828054600181600116156101000203166002900480156125ac5780601f10612581576101008083540402835291602001916125ac565b820191906000526020600020905b81548152906001019060200180831161258f57829003601f168201915b5050505050908060060154908060070154908060080160009054906101000a900473ffffffffffffffffffffffffffffffffffffffff16905089565b6005602052806000526040600020600091509050806000015490806001018054600181600116156101000203166002900480601f01602080910402602001604051908101604052809291908181526020018280546001816001161561010002031660029004801561269a5780601f1061266f5761010080835404028352916020019161269a565b820191906000526020600020905b81548152906001019060200180831161267d57829003601f168201915b505050505090806002015490806003018054600181600116156101000203166002900480601f01602080910402602001604051908101604052809291908181526020018280546001816001161561010002031660029004801561273e5780601f106127135761010080835404028352916020019161273e565b820191906000526020600020905b81548152906001019060200180831161272157829003601f168201915b505050505090806004018054600181600116156101000203166002900480601f0160208091040260200160405190810160405280929190818152602001828054600181600116156101000203166002900480156127dc5780601f106127b1576101008083540402835291602001916127dc565b820191906000526020600020905b8154815290600101906020018083116127bf57829003601f168201915b505050505090806005018054600181600116156101000203166002900480601f01602080910402602001604051908101604052809291908181526020018280546001816001161561010002031660029004801561287a5780601f1061284f5761010080835404028352916020019161287a565b820191906000526020600020905b81548152906001019060200180831161285d57829003601f168201915b505050505090806006018054600181600116156101000203166002900480601f0160208091040260200160405190810160405280929190818152602001828054600181600116156101000203166002900480156129185780601f106128ed57610100808354040283529160200191612918565b820191906000526020600020905b8154815290600101906020018083116128fb57829003601f168201915b5050505050908060070154908060080160009054906101000a900473ffffffffffffffffffffffffffffffffffffffff1690806009015490508a565b60035481565b600160009054906101000a900473ffffffffffffffffffffffffffffffffffffffff1673ffffffffffffffffffffffffffffffffffffffff163373ffffffffffffffffffffffffffffffffffffffff1614612a1d576040517f08c379a00000000000000000000000000000000000000000000000000000000081526004018080602001828103825260198152602001807f4f6e6c7920757365722063616e2061636365737320746869730000000000000081525060200191505060405180910390fd5b6000865111612a2b57600080fd5b6000845111612a3957600080fd5b6000835111612a4757600080fd5b6000825111612a5557600080fd5b60008111612a6257600080fd5b600073ffffffffffffffffffffffffffffffffffffffff163373ffffffffffffffffffffffffffffffffffffffff161415612a9c57600080fd5b60008511612aa957600080fd5b60026000815480929190600101919050555060405180610120016040528060025481526020018781526020018681526020018581526020018481526020018381526020018281526020014281526020013373ffffffffffffffffffffffffffffffffffffffff16815250600460006002548152602001908152602001600020600082015181600001556020820151816001019080519060200190612b4e929190613325565b50604082015181600201556060820151816003019080519060200190612b75929190613325565b506080820151816004019080519060200190612b92929190613325565b5060a0820151816005019080519060200190612baf929190613325565b5060c0820151816006015560e082015181600701556101008201518160080160006101000a81548173ffffffffffffffffffffffffffffffffffffffff021916908373ffffffffffffffffffffffffffffffffffffffff1602179055509050507f4656d7d537715af632c657303d2b1185835c2526b8745bbae59f19b40f8b9caa6002548787878787874233604051808a8152602001806020018981526020018060200180602001806020018881526020018781526020018673ffffffffffffffffffffffffffffffffffffffff1673ffffffffffffffffffffffffffffffffffffffff16815260200185810385528d818151815260200191508051906020019080838360005b83811015612cd1578082015181840152602081019050612cb6565b50505050905090810190601f168015612cfe5780820380516001836020036101000a031916815260200191505b5085810384528b818151815260200191508051906020019080838360005b83811015612d37578082015181840152602081019050612d1c565b50505050905090810190601f168015612d645780820380516001836020036101000a031916815260200191505b5085810383528a818151815260200191508051906020019080838360005b83811015612d9d578082015181840152602081019050612d82565b50505050905090810190601f168015612dca5780820380516001836020036101000a031916815260200191505b50858103825289818151815260200191508051906020019080838360005b83811015612e03578082015181840152602081019050612de8565b50505050905090810190601f168015612e305780820380516001836020036101000a031916815260200191505b509d505050505050505050505050505060405180910390a1505050505050565b6000865111612e5e57600080fd5b6000835111612e6c57600080fd5b6000825111612e7a57600080fd5b6000815111612e8857600080fd5b60008511612e9557600080fd5b600073ffffffffffffffffffffffffffffffffffffffff163373ffffffffffffffffffffffffffffffffffffffff161415612ecf57600080fd5b60036000815480929190600101919050555060405180610140016040528060035481526020018781526020018681526020018581526020018481526020018381526020018281526020014281526020013373ffffffffffffffffffffffffffffffffffffffff1681526020016000815250600560006003548152602001908152602001600020600082015181600001556020820151816001019080519060200190612f7b929190613325565b50604082015181600201556060820151816003019080519060200190612fa2929190613325565b506080820151816004019080519060200190612fbf929190613325565b5060a0820151816005019080519060200190612fdc929190613325565b5060c0820151816006019080519060200190612ff9929190613325565b5060e082015181600701556101008201518160080160006101000a81548173ffffffffffffffffffffffffffffffffffffffff021916908373ffffffffffffffffffffffffffffffffffffffff16021790555061012082015181600901559050507fb45bad31593e263efbbe255e8df56675804be8bc73e5bb78390bd5f8fc2acd096003548787878787874233604051808a815260200180602001898152602001806020018060200180602001806020018881526020018773ffffffffffffffffffffffffffffffffffffffff1673ffffffffffffffffffffffffffffffffffffffff16815260200186810386528e818151815260200191508051906020019080838360005b8381101561311a5780820151818401526020810190506130ff565b50505050905090810190601f1680156131475780820380516001836020036101000a031916815260200191505b5086810385528c818151815260200191508051906020019080838360005b83811015613180578082015181840152602081019050613165565b50505050905090810190601f1680156131ad5780820380516001836020036101000a031916815260200191505b5086810384528b818151815260200191508051906020019080838360005b838110156131e65780820151818401526020810190506131cb565b50505050905090810190601f1680156132135780820380516001836020036101000a031916815260200191505b5086810383528a818151815260200191508051906020019080838360005b8381101561324c578082015181840152602081019050613231565b50505050905090810190601f1680156132795780820380516001836020036101000a031916815260200191505b50868103825289818151815260200191508051906020019080838360005b838110156132b2578082015181840152602081019050613297565b50505050905090810190601f1680156132df5780820380516001836020036101000a031916815260200191505b509e50505050505050505050505050505060405180910390a1505050505050565b6000809054906101000a900473ffffffffffffffffffffffffffffffffffffffff1681565b828054600181600116156101000203166002900490600052602060002090601f016020900481019282601f1061336657805160ff1916838001178555613394565b82800160010185558215613394579182015b82811115613393578251825591602001919060010190613378565b5b5090506133a191906133a5565b5090565b6133c791905b808211156133c35760008160009055506001016133ab565b5090565b9056fe4f6e6c792050726f6f6649442055706c6f616465722063616e206163636573732074686973a265627a7a7231582074ed650a4b5a3a468b1997dfef29a002c308486a153c97351438ddc79179209f64736f6c63430005100032",
  "source": "pragma solidity ^0.5.16;\n\ncontract IDProof {\n    \n  address public admin;\n  address public user;\n  \n  uint256 public BookCount = 0;\n  uint256 public IDProofCount = 0;\n  \n  constructor() public {\n      admin = msg.sender;\n      user = msg.sender;\n  }\n  \n  struct Book {\n    uint256 book_Id;\n    string book_Hash;\n    uint256 book_Size;\n    string book_Name;\n    string book_Description;\n    string author;\n    uint256 isbn;\n    uint256 uploadTime;\n    address uploader;\n  }\n  mapping(uint256 => Book) public books;\n\n  struct ProofID {\n    uint256 proof_Id;\n    string proofId_Hash;\n    uint256 proofId_Size;\n    string username;\n    string houseaddress;\n    string phonenumber;\n    string emailid;\n    uint256 uploadTime;\n    address uploader;\n    uint reports;\n  }\n    \n  mapping(uint256 => ProofID) public userproof;\n    \n  struct Reporter{\n        bool reported;\n    }\n  \n  mapping(address => mapping(uint =>  Reporter)) public reporters;\n\n  event BookUploaded(uint256 book_Id,string book_Hash,uint256 book_Size,string book_Name,string book_Description,string author,uint256 isbn,uint256 uploadTime,address uploader);\n  event NoteUploaded(uint256 proof_Id,string proofId_Hash,uint256 proofId_Size,string username,string houseaddress,string phonenumber,string emailid,uint256 uploadTime,address uploader);\n    \n  \n\n  modifier onlyadmin(){\n        require(msg.sender==admin,\"Only Admin can access this\");\n        _;\n    }\n    \n  modifier onlylibrarian(){\n        require(msg.sender==user,\"Only user can access this\");\n        _;\n    }\n    \n  modifier onlyUploaderorLibrarian(uint256 _index){\n        require(msg.sender==userproof[_index].uploader || msg.sender==user,\"Only ProofID Uploader can access this\");\n        _;\n    }\n    \n  modifier notuploader(uint256 _index){\n        require(msg.sender!=userproof[_index].uploader,\"Uploader can't report userproof\");\n        _;\n    }\n\n  function changelibrarian(address _librarian) public onlyadmin() {\n        require(msg.sender != address(0));\n        user = _librarian;\n    }\n    \n    \n  function deletebook(uint index) public onlylibrarian(){\n      require(msg.sender != address(0));\n      require(BookCount > 0 && index <= BookCount, \"Unable to Delete!\");\n      if(index != BookCount){\n        books[index]= Book(index,books[BookCount].book_Hash,books[BookCount].book_Size,books[BookCount].book_Name,books[BookCount].book_Description,books[BookCount].author,books[BookCount].isbn,books[BookCount].uploadTime,books[BookCount].uploader);\n        books[BookCount]= Book(0,\"\",0,\"\",\"\",\"\",0,0,address(0));\n        BookCount --;}\n      else\n      {\n        books[index]= Book(0,\"\",0,\"\",\"\",\"\",0,0,address(0));\n        BookCount--;\n      }\n    }\n    \n  function uploadBook(string memory _book_Hash,uint256 _book_Size,string memory _book_Name,string memory _book_Description,string memory _author,uint256 _isbn) public onlylibrarian() {\n    \n    require(bytes(_book_Hash).length > 0);\n    require(bytes(_book_Name).length > 0);\n    require(bytes(_book_Description).length > 0);\n    require(bytes(_author).length > 0);\n    require(_isbn > 0);\n    require(msg.sender != address(0));\n    require(_book_Size > 0);\n\n    BookCount++;\n\n    books[BookCount] = Book(BookCount,_book_Hash,_book_Size,_book_Name,_book_Description,_author,_isbn,now,msg.sender);\n\n    emit BookUploaded(BookCount,_book_Hash,_book_Size,_book_Name,_book_Description,_author,_isbn,now,msg.sender);\n  }\n\n  \n\n  function uploadNote(string memory _proofId_Hash,uint256 _proofId_Size,string memory username,string memory houseaddress,string memory phonenumber,string memory email) public {\n    //stream = username, subject code = houseaddress, teacher = phonenumber , date = email\n    \n    \n    require(bytes(_proofId_Hash).length > 0);\n    require(bytes(houseaddress).length > 0);\n    require(bytes(phonenumber).length > 0);\n    require(bytes(email).length > 0);\n    require(_proofId_Size > 0);\n    require(msg.sender != address(0));\n    \n\n    IDProofCount++;\n\n    userproof[IDProofCount] = ProofID(IDProofCount,_proofId_Hash,_proofId_Size,username,houseaddress,phonenumber,email,now,msg.sender,0);\n    emit NoteUploaded(IDProofCount,_proofId_Hash,_proofId_Size,username,houseaddress,phonenumber,email,now,msg.sender);\n    }\n    \n  function deletenote(uint index) public onlyUploaderorLibrarian(index){\n        require(msg.sender != address(0));\n        require(IDProofCount > 0 && index <= IDProofCount, \"Unable to Delete!\");\n        if(index != IDProofCount){\n        userproof[index]= ProofID(index,userproof[IDProofCount].proofId_Hash,userproof[IDProofCount].proofId_Size,userproof[IDProofCount].username,userproof[IDProofCount].houseaddress,userproof[IDProofCount].phonenumber,userproof[IDProofCount].emailid,userproof[IDProofCount].uploadTime,userproof[IDProofCount].uploader,0);\n        userproof[IDProofCount]= ProofID(0,\"\",0,\"\",\"\",\"\",\"\",0,address(0),0);\n        IDProofCount --;}\n        else\n        {\n            userproof[index]= ProofID(0,\"\",0,\"\",\"\",\"\",\"\",0,address(0),0);\n            IDProofCount--;\n        }\n    }\n  // function reportnote(uint index) public notuploader(index){\n  //   require(msg.sender != address(0));\n  //   uint before = userproof[index].reports;\n  //   // require(!reporters[msg.sender].reported);\n  //   if(reporters[msg.sender][index].reported==false){\n\n  //   before++;\n  //   userproof[index].reports = before;\n  //   reporters[msg.sender][index].reported=true;\n  //   }\n  //   else{\n  //   before--;\n  //   userproof[index].reports = before;\n  //   reporters[msg.sender][index].reported=false;\n  //   }\n  // }\n}\n",
  "sourcePath": "D:\\Final Yr Project\\src\\contracts\\IDProof.sol",
  "compiler": {
    "name": "solc",
    "version": "0.5.16+commit.9c3226ce.Emscripten.clang"
  },
  "schemaVersion": "3.4.7",
  "updatedAt": "2022-05-14T13:49:37.816Z",
  "devdoc": {
    "methods": {}
  },
  "userdoc": {
    "methods": {}
  }
}